:020000040800F2
:10000000A8070020350200083D0200083F02000852
:1000100041020008430200084502000800000000F9
:10002000000000000000000000000000470200087F
:1000300049020008000000004B0200084D020008C1
:100040004F0200084F0200084F0200084F0200084C
:100050004F0200084F0200084F0200084F0200083C
:100060004F0200084F0200084F0200084F0200082C
:100070004F0200084F0200084F0200084F0200081C
:100080004F0200084F0200084F0200084F0200080C
:100090004F0200084F0200084F0200084F020008FC
:1000A0004F0200084F0200084F0200084F020008EC
:1000B000113D00084F0200084F0200084F020008DF
:1000C0004F0200084F0200084F0200084F020008CC
:1000D0004F0200084F0200084F0200084F020008BC
:1000E0004F0200084F0200084F02000800F002F81B
:1000F00000F090F80AA090E8000C82448344AAF132
:100100000107DA4501D100F085F8AFF2090EBAE82F
:100110000F0013F0010F18BFFB1A43F0010318473B
:10012000384D0000584D0000103A24BF78C878C1FF
:10013000FAD8520724BF30C830C144BF04680C60ED
:10014000704700000023002400250026103A28BF35
:1001500078C1FBD8520728BF30C148BF0B60704739
:100160006E2900F03F81702900F08182662904F039
:100170005D85652904F05A85672904F05785612952
:1001800004F0568503681B0A28BF41F080016929E5
:1001900000F0EC80642900F0E980752900F0E68029
:1001A0006F2900F00F82782900F04D82E92900F0D4
:1001B000A981E42900F0A681F52900F0A381EF29A7
:1001C00000F00C82F82900F04C820368DB0928BF9C
:1001D00041F08001632900F04D87732900F05287B8
:1001E000E32900F05D87F32900F062870020704763
:1001F0001FB500F0B3FF04000020002104F000FD53
:10020000401C60600020002104F0E4FCE0601FBDA1
:1002100010B510BD00F074FF1146FFF7E9FF03F0C1
:100220005DFF01F051F803B4FFF7F2FF03BC01F0EA
:1002300099F800000948804709480047FEE7FEE7B3
:10024000FEE7FEE7FEE7FEE7FEE7FEE7FEE7FEE786
:1002500004480549054A064B70470000A93C0008C0
:10026000ED000008A8010020A8070020A803002036
:10027000A80300200FB41CB5084B06AA7B446946AE
:100280000090059800F0C7F804460020694600F089
:10029000D5F820461CBC5DF814FB0000BD01000031
:1002A00070477047704770B5044685690068C1069D
:1002B00001D5302600E02026C00707D070BDD4E964
:1002C000012130469047206A401C20626D1EF6D501
:1002D00070BD70B5044685690078C00707D170BD50
:1002E000D4E9012120209047206A401C20626D1E25
:1002F000F6D570BD09684A0501D540B27047C905F9
:10030000FCD500B2704709684A0501D5C0B27047F4
:10031000C905FCD580B2704770B50C460546012A68
:1003200005D02878800600D5EA69002302E0012381
:1003300005E05B1C934202D2E05C0028F9D1A86979
:10034000E618C01AA861286A184428622846FFF7F0
:10035000AAFF04E0D5E9012114F8010B9047B4424B
:10036000F8D32846FFF7B5FF70BD00002DE9F04136
:100370000646002410687529314616A510D0FFF7EF
:10038000B9FF002802DA404213A507E031688A0766
:1003900001D512A502E0490704D511A5012401E009
:1003A000FFF7B1FF00210A2206F1240709E0B0FBA4
:1003B000F2FCB0FBF2F302FB1C003030785418461C
:1003C000491C0028F3D123462A463046BDE8F041B7
:1003D00000F061BA000000002D0000002B000000BA
:1003E0002000000011680268006A530501D50870FA
:1003F0000AE0D30501D5088006E0130603D5C2172D
:10040000C1E9000200E008600120704701694A1C50
:1004100002610878704700B58FB0CDE90131002145
:10042000059105497944CDE903101146684600F06D
:1004300029F90FB000BD0000E5FFFFFF0A6802F8D0
:10044000010B0A60704700002DE9FF5F15468A46E0
:100450000446DFF8AC80F8440027D8E900103E4697
:10046000CDE9001010E03AF816106A4602A800F034
:1004700023FE411C07D02178890603D5E26939188B
:1004800091420DD80744761C2078800602D5E06999
:10049000B84205DDAE42E6DB3AF816000028E2D1AC
:1004A000A069C01BA0612046FFF7FDFED8E900103F
:1004B000CDE90010002017E03AF818106A4602A8AB
:1004C00000F0FAFDB0F1FF3F81460BD000250DF1A1
:1004D000080B05E0D4E901211BF8050090476D1CCD
:1004E0004D45F7D308F10100B0428046E4DB206AB5
:1004F000384420622046FFF7ECFEBDE8FF9F000075
:10050000DA4700002DE9F0418046D21D22F00702B3
:100510000025D2E90002F52915A614D0011E72F1BA
:10052000000106DA0023D0EB030063EB020211A600
:1005300008E0D8F800108B0701D50FA602E04907A4
:1005400001D50EA601251146002408F1240704E078
:1005500000F05CF930323A55641C50EA0102F7D1E0
:100560002B46324621464046BDE8F04100F093B9A3
:10057000000000002D0000002B0000002000000003
:1005800030B4002100F1240408E002F00705D2088D
:10059000303542EA4372DB086554491C52EA0305D0
:1005A000F3D10468002310A2250708D504F0200425
:1005B0000C4304D0C46901230CA2641EC46130BC86
:1005C00000F069B910B5044621461068FFF79BFE9C
:1005D00002462046BDE810400023D1E7D21D22F09C
:1005E0000701D1E90023CBE7000000003000000044
:1005F000F0B40D460188090502D5214C7C4402E087
:100600001F4C7C440E34002100F1240608E002F067
:100610000F071209E75D42EA03721B097754491C70
:1006200052EA0307F3D102780023120704D5702D94
:1006300006D009B1022311342246F0BC00F02BB9D8
:1006400001231034F8E770B504460D4621461068C2
:10065000FFF759FE024629462046BDE870400023B8
:10066000C6E7D21D22F00703D3E90023C0E70368E1
:10067000126843F0200303600823C3610023B7E737
:100680003C4600002DE9F05F894604464FF0000A21
:10069000DFF874B1FB44C0F820A02046E168884729
:1006A000002874D0252806D0D4E901219047206A7B
:1006B000401C2062F1E700265F462046E16888473B
:1006C0002028054607DB312D05D2781910F8200CBB
:1006D00008B10643F1E7B00701D526F00406C4F8D7
:1006E0001CA00027C4F818A02A2D09D0284604F021
:1006F00069FA38B304EB8708303DC8F8185019E0A0
:1007000059F8041B204604EB87029161E168884791
:10071000012F054618D1E069002820DA26F02006CE
:100720001DE0D8F8180000EB800005EB40003038E1
:10073000C8F818002046E1688847054604F042FAE8
:100740000028EED1012F0AD02E2D08D12046E168D5
:1007500088477F1C0546022F46F02006C4DBA069AF
:10076000002803DA404246F00106A061F00701D0FC
:1007700026F010066C2D0BD0682D09D04C2D39D0E9
:100780006A2D35D0742D35D07A2D33D016E038E06F
:10079000E1682F4620468847B842054609D16C2FAC
:1007A00026D04FF48060E16806432046884705461E
:1007B00004E06C2F1AD04FF4807006430DB3A5F1FE
:1007C0004100192802D8203546F400664A462946D9
:1007D000204626604E46FFF7C3FC80B101280BD0AF
:1007E000F61D26F0070000F1080956E74020E4E76F
:1007F0008020D8E70020D6E706F104094DE7284617
:1008000052E7206ABDE8F09FCC45000030B5B0F15A
:100810000A0271F100034FEA900E4EEA817EB0EBBE
:100820000E0061EB91014FEA101E4EEA017E10EBC3
:100830000E0041EB11114FEA102E4EEA016E10EB43
:100840000E0041EB11214FEA104E4EEA014E10EB23
:100850000E0041EB1141401841F100014FEAD00078
:1008600040EA41704FEAD1014FEA810444EA9074B2
:1008700010EB800544EB01046D1944EB0404521B9A
:10088000A3414FF0000348BF0A3200D530BD401CE1
:1008900041F1000130BD2DE9F0470D4699469246E1
:1008A000044600F124080168880604D5E06921F0B7
:1008B0001001216000E00120A84201DD471B00E09B
:1008C0000027A1697A1902EB0900081AA0612078B3
:1008D000C00602D42046FFF7E6FC002608E0D4E973
:1008E00001211AF806009047206A401C761C2062FD
:1008F0004E45F4DB2078C0060AD52046FFF7D3FC2E
:1009000006E0D4E9012130209047206A401C206293
:10091000381EA7F10107F4DC07E0D4E9012118F83B
:1009200005009047206A401C2062281EA5F10105A1
:10093000F3DC2046FFF7CDFC2078000602D502202C
:10094000BDE8F0870120FBE72DE9FF4F0C461E466E
:100950004FF0FF378BB0D2E90001DDF860800A90DC
:100960008A46C1F30A5505B93D46002108464FF0B5
:100970000000BAF1000F00F4400005DA00EB80003F
:100980004FF4400101EA50004FEA9059B9F1010FCC
:1009900000DDB9460A9850EA4A000ED044F61050DD
:1009A000A5F2FF3545432F14B8F1000F1ED0754254
:1009B000291E1EDDC9F100021CE0B8F1010F4FF045
:1009C000000001D0302103E0F24305E02154401C37
:1009D000B042FBDB30460022002121540B99C1F8C4
:1009E0000880C1E900200FB0BDE8F08FBD1B6D1C71
:1009F000DEE74A4600DA694206A800F0F3FB06ABE0
:100A000093E8070003AB83E8070050460A9903F018
:100A1000FDFC8DE80700A0F500501F3800900398FA
:100A2000002D0ADD42F21F014A460844002303A9B3
:100A30000390684603F066FF09E0A0F500504A46BF
:100A40001F38002303A90390684603F070FF8DE868
:100A500007000004000C03D04FF0FF30410800E015
:100A60001046B8F1000F03D00022009215461EE098
:100A7000751E05D4FFF7CAFE303262556D1EF9D5DA
:100A8000B3460122084302D000227F1C04E02078F4
:100A9000302801D100227F1E002A099784D01DE052
:100AA000112D07DAFFF7B2FE303262556D1C50EAA5
:100AB0000102F5D1084302D00098C8B10EE0002130
:100AC000681E05E0235C625C63542254401E491C8E
:100AD0008142F7DBAB46A81B401E0990002004F8BA
:100AE0000B000B98099AC0F80880C0E9002B7AE740
:100AF00011264FF0000857E72DE9F04F88460446CD
:100B0000D21D22F0070191B0D1E90001CDE90A011F
:100B100004F044F802460B98C00F01D02D2007E0E6
:100B20002068810701D52B2002E0202101EAC000C6
:100B3000032A099001D0072A05DB034641462046D7
:100B400000F010FB0BE12078800601D5E06900E0A1
:100B50000620B8F1650F814606D0B8F1660F18D0AF
:100B6000B8F1670F70D131E00020B9F1110F00909A
:100B700001DB112301E009F101030AAA01A90CA874
:100B8000FFF7E2FEDDE90C70002609F1010583465E
:100B900047E001204B4600904FF000470AAA01A908
:100BA0000CA8FFF7D1FEDDE90DB00C995D460026DB
:100BB00010B909F101000D18B9EB050003D4C0F11B
:100BC000FF3609F10105A5EB09002BE0B9F1010F92
:100BD00001DA4FF001090020B9F1110F00904846E9
:100BE00001DD112300E003460AAA01A90CA8FFF7C2
:100BF000ABFEDDE90C704D460026834620780007E9
:100C00000AD4AB4500DA5D4601A8012D04DD411987
:100C100011F8011C302907D04F4502DA17F1040FF3
:100C200004DA012082460FE06D1EEEE7002F02DCA1
:100C3000ED1B3E4403E0781CA84200DD7D1CB81B80
:100C400000F1010A4FF000472078000703D4AA45BD
:100C500001DB4FF0FF3A0021B7F1004F0DF14308DF
:100C60008DF8431024D002202B23002F01DA7F427D
:100C70002D230A21021EA0F1010000DC5FB197FBC9
:100C8000F1FC97FBF1F201FB1C7C17460CF1300CD8
:100C900008F801CDEEE7A8F10100037021880905ED
:100CA00001D5452100E06521A0F1010800F8011CF3
:100CB00009980FA9A1EB0807FF1D00B101204119F8
:100CC00001EBEA70A1693844081A401EA06120783F
:100CD000C00602D42046FFF7E6FA099828B1D4E905
:100CE00001219047206A401C20622078C00622D54E
:100CF0002046FFF7D8FA1EE0002E04DBB34502DDE4
:100D000001A8805D00E03020D4E901219047206AED
:100D1000401C2062761CAAF101005FEA000A0AD199
:100D200000F01CFAC0680168405CD4E901219047DA
:100D3000206A401C2062281EA5F10105DCDC07E0CA
:100D4000D4E9012118F8010B9047206A401C206269
:100D5000381EA7F10107F3DC2046FFF7BAFA03209B
:100D600011B041E62DE9F04F04460D46D21D22F0A8
:100D7000070089B0D0E900974846394603F00EFFD6
:100D80000246F80F01D02D2307E02068810701D526
:100D90002B2302E0202101EAC0038DF820300BB1A3
:100DA000012000E00020032A824601D0072A04DB4C
:100DB0002946204600F0D6F93FE12078800601D48C
:100DC0000D2500E0E569C7F30A560D2D49DA00212B
:100DD0004FEA175B08464FF00000002F00F4400078
:100DE00007DA00EB80004FF4400100EBD07001EA1D
:100DF00060008115012901DD4FF0FF3100224FEA2B
:100E0000850CBCF1180F06D31346ACF118004FF057
:100E10008052C24003E04FF4801323FA0CF30CF12C
:100E20000C0CBCF1200F04D3ACF1200C09FA0CF02F
:100E300001E007FA0CF000294FF0004801DD18B975
:100E40000FE00ED140450CD319EB02095F4121B9E7
:100E5000404502D19F4329EA0209BBEB175F00D04E
:100E6000761C2088000502D57B48784402E07A4849
:100E70007844193808AA302302F80A30037C0AF1B2
:100E80000101002E0AF1020A53546A4602DC4FF0B7
:100E9000300101E04FF031014FF001088DF80010F2
:100EA00002D0A6F2FF3603E059EA470100D06B4EAC
:100EB000002D02DC2178090704D54FF002082E210D
:100EC0008DF80110C44600210BE0C7F303433F0136
:100ED000C35C491C6D1E02F80830052908F10108A1
:100EE00001DA002DF1DC00210CE000EB1973491C44
:100EF0001B786D1E082902F808304FEA091908F11D
:100F0000010801DA002DF0DC21688B0602D516E01D
:100F1000A8F10108E04505DD02EB080313F8013CE8
:100F2000302BF5D0B8F1000F09DD02EB080313F800
:100F3000013C2E2B03D1090701D4A8F10108002D93
:100F400005DD3E2102F808106D1E08F10108407C05
:100F5000002E02F8080008F1010804DA2D2076427C
:100F600002F8080002E02B2002F808000A214FF4E2
:100F70007A70864208F101080BDB96FBF0F3303300
:100F800002F8083096FBF0F308F1010800FB136645
:100F900001E0642E0CDB642096FBF0F3303302F8A2
:100FA000083096FBF0F308F1010800FB136601E03E
:100FB0000A2E06DB96FBF1F0303002F8080008F14B
:100FC000010896FBF1F001FB1060303002F80800D8
:100FD000A16908F1010808EB050202EB0A00081AF2
:100FE000A0612078C00602D42046FFF75CF9216A90
:100FF00008AE01EB0A00206204E0D4E9012116F8F2
:10100000010B9047BAF1010AF7D22078C00602D549
:101010002046FFF748F96E4609E016F8010B3E2816
:101020000FD0D4E901219047206A401C2062B8F11A
:101030000108F2D22046FFF74CF909B00320BDE8C1
:10104000F08F206A2844206203E0D4E90121302097
:1010500090476D1EEBD3F8E71A3E000002FCFFFF3D
:1010600010B5436913B1AFF3008001E0FFF754F905
:10107000012010BD127800F124010A7000224A708C
:101080000122EDE711684FF0FF32E9E710B543693F
:1010900013B1AFF3008001E0FFF7D6F9012010BDD6
:1010A000128800F1240182840022C2840122EDE72B
:1010B00011684FF0FF32E9E72DE9F04116460C4682
:1010C000054600F043F8036893F80101012807D0B2
:1010D000FF2C12D8185D80B101202C70BDE8F08182
:1010E000D3F807013246214603F20713C7182846F2
:1010F000BC46BDE8F041002360474FF0FF30EDE70C
:10110000754600F0EBF8AE4605006946534620F000
:101110000700854618B020B5FFF79AF8BDE82040D3
:101120004FF000064FF000074FF000084FF0000BA3
:10113000AC46ACE8C009ACE8C009ACE8C009ACE812
:10114000C00921F007018D467047000010B500F07E
:1011500005F8001D10BD00BFA93A00000048704707
:10116000580000202DE9F0411F460446032601687F
:10117000072A01F4006004DB08B116A505E016A5F6
:1011800003E008B115A500E015A521F010002060CE
:10119000A069C01EA0610FB1401EA0612046FFF7EC
:1011A00082F84FB1D4E9012138469047206A401CAB
:1011B0002062C01C206206E0206AFAE7D4E901211F
:1011C00015F8010B9047761EF8D22046FFF781F8FC
:1011D000BDE8F0814E414E006E616E00494E460002
:1011E000696E66002DE9F047814616468AB035489B
:1011F00078440DC88DE80D0032487844801C03AC5B
:101200000DC884E80D0041F69B300844372190FB5F
:10121000F1F290FBF1F5A5F1800501FB12041B3CF6
:1012200002D56442012000E00020DFF898A080464B
:101230000027FA44AAF1BE0A0EE0E0070AD03246BF
:10124000684607EB470101230AEB810103F06FFBBE
:101250008DE8070064107F1C002CEED1194F7F44ED
:10126000AE3F19E0E80715D007EB04100DF1180A9E
:1012700090E80E008AE80E00C068F04201D198198B
:1012800008903246012306A903A803F050FB03ABE4
:1012900083E807006D10641C002DE3D14FF00103BB
:1012A00032466946B8F1000F03A802D003F02AFBCA
:1012B00001E003F03CFBC9E90001C9F808200AB0CD
:1012C000BDE8F087243B000010B50446AFF3008072
:1012D0002046BDE81040FEF7A6BF0000004870475A
:1012E000380000204FF0013C50F8042B51F8043B2B
:1012F0009A4221D1A2EB0C03934313EACC1317D1EA
:1013000050F8042B51F8043B9A4215D1A2EB0C0380
:10131000934313EACC130BD150F8042B51F8043B40
:101320009A4209D1A2EB0C03934313EACC13DBD00E
:101330004FF00000704700BFD01A01BAB1FA81F136
:1013400001F0180122FA01F0CB40DBB2C0B2C01AA2
:10135000C1F120012CFA01F3D11A914311EAC31112
:10136000E6D1704701491820ABBEFEE72600020017
:101370007047000080B58AB000208DF827008DF8F6
:10138000260008908DF81F008DF81E008DF81C00B7
:10139000069000F037FFC82000F030FCFFE7002087
:1013A0000590059901F014F844F66050C0F600006D
:1013B00000F0FCFF0121059801F00AF844F6B15055
:1013C000C0F6000000F0F2FF05988DF827008DF8B8
:1013D0001E0040F29800C2F2000001F0F5FB002868
:1013E00040F02782FFE700208DF82600FFE79DF8F8
:1013F000260004281CDCFFE79DF8260040F20101CE
:10140000C2F20001095C40F29802C2F20002105CD4
:10141000814206D1FFE79DF8270001308DF82700B3
:10142000FFE7FFE79DF8260001308DF82600DEE794
:101430009DF82700052800F0F481FFE700208DF8D3
:101440002600FFE79DF82600042800F38A80FFE7C6
:101450009DF8260000EB800040F2A001C2F20001DE
:10146000085C40F29801C2F200010978884271D10B
:10147000FFE79DF8260000EB800040F2A001C2F2D9
:1014800000010844407840F29801C2F20001497816
:1014900088425FD1FFE79DF8260000EB800040F214
:1014A000A001C2F200010844807840F29801C2F223
:1014B0000001897888424DD1FFE79DF8260000EBB6
:1014C000800040F2A001C2F200010844C07840F25E
:1014D0009801C2F20001C97888423BD1FFE79DF82C
:1014E000260000EB800040F2A001C2F20001084497
:1014F000007940F29801C2F200010979884229D1AD
:10150000FFE700F07FFE00200490049900F060FFE8
:1015100044F66050C0F6000000F048FF0121049836
:1015200000F056FF44F61A60C0F6000000F03EFFDF
:101530004FF47A7000F062FB00F064FE9DF81E002C
:1015400001308DF81E009DF81E00012801DBFFE729
:1015500007E0FFE7FFE79DF8260001308DF8260041
:1015600070E79DF81E00002840F05A81FFE7002038
:101570008DF82600FFE79DF82600042800F32C8153
:10158000FFE79DF8260000EB800040F2A001C2F2C8
:101590000001085CFF2840F01281FFE79DF826005B
:1015A00000EB800040F2A001C2F200010844407844
:1015B000FF2840F00481FFE79DF8260000EB800043
:1015C00040F2A001C2F2000108448078FF2840F0F8
:1015D000F680FFE79DF8260000EB800040F2A001B6
:1015E000C2F200010844C078FF2840F0E880FFE71D
:1015F0009DF8260000EB800040F2A001C2F200013D
:1016000008440079FF2840F0DA80FFE700200890C6
:10161000FFE70898042815D8FFE7089840F29801DA
:10162000C2F20001095C9DF8262002EB820240F222
:10163000A003C2F200031A441154FFE708980130D6
:101640000890E6E700200890FFE708980021B1EB3A
:10165000D02F40F09680FFE740F20600C2F2000073
:1016600000884FF60271884243D1FFE7089848F698
:101670000001C0F6000101EBC00006A9052200F040
:10168000B7FB9DF81800FF2832D1FFE79DF819003D
:10169000FF282DD1FFE79DF81A00FF2828D1FFE78A
:1016A0009DF81B00FF2823D1FFE79DF81C00FF28B1
:1016B0001ED1FFE7089848F60001C0F6000101EBD3
:1016C000C00040F29801C2F20001082200F0FEFBC7
:1016D00049F20000C0F60000039000F043FB40F226
:1016E0000601C2F200010222039800F0EFFB48E07D
:1016F00042E0089848F20001C0F6000101EBC0008A
:1017000006A9052200F074FB9DF81800FF2832D1CD
:10171000FFE79DF81900FF282DD1FFE79DF81A007B
:10172000FF2828D1FFE79DF81B00FF2823D1FFE702
:101730009DF81C00FF281ED1FFE7089848F2000121
:10174000C0F6000101EBC00040F29801C2F20001B6
:10175000082200F0BBFB49F20000C0F60000029036
:1017600000F000FB40F20601C2F2000102220298E2
:1017700000F0ACFB05E0FFE7FFE7089801300890B8
:1017800063E700F03FFD00200190019900F020FE8A
:1017900044F66050C0F6000000F008FE01210198F8
:1017A00000F016FE44F68F50C0F6000000F0FEFD7B
:1017B0004FF47A7000F022FA00F024FD0CE09DF85E
:1017C0001F0001308DF81F00FFE7FFE79DF826009E
:1017D00001308DF82600CEE69DF81F0005281ED1A9
:1017E000FFE700F00FFD00200090009900F0F0FDF1
:1017F00044F66050C0F6000000F0D8FD01210098CA
:1018000000F0E6FD44F69D50C0F6000000F0CEFD6D
:101810004FF47A7000F0F2F900F0F4FCFFE7FFE714
:1018200006E040F29E00C2F20000022101700EE0CC
:10183000FFE740F29E00C2F200000078022805D1C6
:10184000FFE74FF47A7000F0D9F900E0A7E50AB09D
:1018500080BD000080B582B01420009001F0DCFD56
:101860008DF807000321009802F06CF902B080BDEA
:1018700080B586B00B4605908DF8131003920520B5
:101880000421019300F06AF90A20802102F05AF93C
:1018900000208DF80B00FFE79DF80B009DF813105A
:1018A00088420EDAFFE705989DF80B10415C09208D
:1018B00002F0EAFBFFE79DF80B0001308DF80B000A
:1018C000EAE70120032102F0DFFBFF208DF80B0087
:1018D000FFE7052001F0A0FD8DF80A009DF80B0040
:1018E00001388DF80B00FFE79DF80B000021002860
:1018F000009109D0FFE79DF80A0000F004000121E3
:1019000081EA90000090FFE70098C0070028E0D12E
:10191000FFE7222001F080FD03990870212001F0EB
:101920007BFD0399487006B080BD000080B584B08F
:1019300000F068FC40F29F10C2F20000002101603C
:1019400040F2A310C2F200000170FFE700200390F4
:10195000039900F03DFD44F64A60C0F6000000F037
:1019600025FD0121039800F033FD40F29F10C2F2E3
:10197000000000F01BFD01F0D9FF40F20001C2F2AF
:10198000000108700878FF2803D0FFE701F022F873
:10199000FFE740F29F10C2F2000040F22101C2F2C4
:1019A000000100F007F9012853D1FFE700F02AFCFD
:1019B00000200290029900F00BFD44F63D60C0F655
:1019C000000000F0F3FC40F29F10C2F20000029908
:1019D000016040F22100C2F20000016040F22000EC
:1019E000C2F200000222027040F2A310C2F2000014
:1019F0000170FFE70020012100F0EAFC40F2210025
:101A0000C2F2000000F0D2FC01F090FF40F20001B1
:101A1000C2F2000108700878FF2803D0FFE700F049
:101A2000D9FFFFE740F2A310C2F2000000780428BB
:101A300007D1FFE740F2A310C2F2000000210170BD
:101A400000E0D7E740F22000C2F20000032101705D
:101A500037E040F2A310C2F20000007804281FD142
:101A6000FFE740F29F10C2F2000040F22101C2F2F3
:101A7000000100F09FF8002812D1FFE700F0C2FB40
:101A800000200190019900F0A3FC44F63060C0F6FC
:101A9000000000F08BFC4FF4FA7000F0AFF811E09A
:101AA00040F22000C2F200000078032807D1FFE7CF
:101AB00040F22000C2F200000121017002E0FFE7C5
:101AC000FFE743E704B080BD80B582B000208DF809
:101AD00007008DF806008DF8050040F29800C2F26C
:101AE000000001F071F8002833D1FFE700208DF8E5
:101AF0000700FFE79DF8070004281CDCFFE79DF8BE
:101B0000070040F20101C2F20001095C40F29802B4
:101B1000C2F20002105C814206D1FFE79DF8050089
:101B200001308DF80500FFE7FFE79DF80700013061
:101B30008DF80700DEE79DF80500052804D1FFE7D2
:101B400002208DF8060003E001208DF80600FFE773
:101B5000FFE79DF8060002B080BD000080B584B0AC
:101B60000A4603468DF80F008DF80E109DF80F0001
:101B70000292019301F050FC8DF80D009DF80F00CA
:101B80009DF80D109DF80E20914302F07DFA04B0EF
:101B900080BD000040F64000C4F200004FF46671C2
:101BA0000180704740F64000C4F200004FF4D2714B
:101BB0000180704784B00290019100200090FFE7FF
:101BC0000098032811DCFFE702980099405C019A15
:101BD000515C884204D0FFE700208DF80F0008E038
:101BE000FFE7009801300090EAE701208DF80F0030
:101BF000FFE79DF80F0004B07047000081B000902F
:101C0000FFE70098002824D0FFE74EF21400CEF240
:101C1000000041F63F11C0F2010101604EF21800D0
:101C2000CEF20000002101604EF21000CEF2000062
:101C300005210160FFE74EF21000CEF200000068BF
:101C4000C003002801D4FFE7F5E7009801380090B1
:101C5000D7E701B07047000081B00090FFE700981F
:101C6000002821D0FFE74EF21400CEF200004721F9
:101C700001604EF21800CEF20000002101604EF229
:101C80001000CEF2000005210160FFE74EF21000C7
:101C9000CEF200000068C003002801D4FFE7F5E79A
:101CA000009801380090DAE701B0704780B582B043
:101CB00001468DF807009DF8070040F29A12C2F223
:101CC0000002127810438DF8060045F20040C4F27D
:101CD000000001220091114600F0F6FBFFE745F2FB
:101CE0000040C4F200000121C0F2030100F0AAFB91
:101CF000002801D1FFE7F2E745F20040C4F20000FE
:101D00004E21002200F030FDFFE745F20040C4F212
:101D100000008221C0F2070100F094FB002801D1ED
:101D2000FFE7F2E79DF8061045F20040C4F200001C
:101D300000F03CFDFFE745F20040C4F200008421C2
:101D4000C0F2070100F07EFB002801D1FFE7F2E7B7
:101D500045F20040C4F20000012100F0CDFB02B0CA
:101D600080BD000080B582B00190FFE742F20C0018
:101D7000C4F202000068C007002801D0FFE7F5E7C1
:101D800042F21000C4F2020000680006002803D5E9
:101D9000FFE700F08BF8FFE742F21000C4F2020008
:101DA000016841F002010160019942F21402C4F29B
:101DB00002021160016841F040010160FFE742F258
:101DC0000C00C4F202000068C007002801D0FFE741
:101DD000F5E742F21000C4F20200016821F00201AE
:101DE0000160016821F04001016002B080BD000087
:101DF00083B00290019100920198002804D0FFE77F
:101E00000098002801D1FFE74EE0FFE70298800725
:101E1000002818D1FFE79DF804008007002812D1A0
:101E2000FFE7009804280ED3FFE7029800680199A5
:101E300008600198043001900298043002900098E4
:101E4000043800902BE00298C007002818D1FFE763
:101E50009DF80400C007002812D1FFE7009802286F
:101E60000ED3FFE70298008801990880019802309C
:101E700001900298023002900098023800900DE024
:101E80000298007801990870019801300190029839
:101E900001300290009801380090FFE7FFE7FFE76C
:101EA00000980028B2D1FFE703B0704742F2040067
:101EB000C4F2020040F22311C4F26751016048F6F7
:101EC000AB11CCF6EF5101607047000080B584B0D3
:101ED00003900291019200200090029800280AD0FD
:101EE000FFE70198002806D0FFE79DF80400C0072F
:101EF000002801D0FFE748E0FFE742F20C00C4F2FF
:101F000002000068C007002801D0FFE7F5E742F2B1
:101F10001000C4F2020000680006002803D5FFE7A5
:101F2000FFF7C4FFFFE742F21000C4F202000168AD
:101F300041F00101016000200090FFE70098019945
:101F4000B0EB510F18D2FFE70298009930F811005A
:101F50000399009A21F81200FFE742F20C00C4F244
:101F600002000068C007002801D0FFE7F5E7FFE79F
:101F7000009801300090E1E742F21000C4F2020044
:101F8000016821F001010160FFE704B080BD00009D
:101F900080B586B00420012101F022F948208DF897
:101FA00017000F20ADF8140003208DF8160040F63E
:101FB0000001C4F2010105AA0490084603911146EC
:101FC000029200F015F810208DF81700F020ADF8FF
:101FD000140004998DF81610039A01901046029986
:101FE00000F006F80398019900F0F2F806B080BD01
:101FF00088B007900691002005900490039002900D
:10200000019000900698C07800F00F0005900698A7
:10201000C078C006002806D5FFE7069880780599A5
:1020200008430590FFE70698007800284FD0FFE7A7
:1020300007980068019000200390FFE703980728A5
:1020400041D8FFE70398012101FA00F002900698B9
:1020500000880299084004900498029988422DD182
:10206000FFE703988000029002980F2101FA00F028
:1020700000900098019921EA0000019005980299CA
:1020800088400199084301900698C078282807D114
:10209000FFE70398012101FA00F0079948610CE07D
:1020A0000698C078482807D1FFE70398012101FA74
:1020B00000F007990861FFE7FFE7FFE7FFE70398F4
:1020C00001300390BAE7019807990860FFE7069886
:1020D0000088B0F5807F51DBFFE7079840680190EA
:1020E00000200390FFE70398072843D8FFE70398F1
:1020F0000830012101FA00F0029006980088029948
:10210000084004900498029988422ED1FFE7039872
:102110008000029002980F2101FA00F000900098D0
:10212000019921EA000001900598029988400199DF
:10213000084301900698C078282808D1FFE7039843
:102140000830012101FA00F007994861FFE706987D
:10215000C078482808D1FFE703980830012101FA28
:1021600000F007990861FFE7FFE7FFE703980130F8
:102170000390B8E7019807994860FFE708B07047F7
:1021800082B00A460190ADF8021000208DF80100DF
:1021900001988068BDF80210084204D0FFE70120D2
:1021A0008DF8010003E000208DF80100FFE79DF8A5
:1021B000010002B07047000082B00A460190ADF8FD
:1021C0000210BDF802000199486102B0704700009A
:1021D00082B00A460190ADF80210BDF802000199E4
:1021E000086102B07047000081B0009000984FF67F
:1021F000FF71018000980221817000980421C17054
:1022000001B0704780B5012001F08EFC4FF4FA60F8
:10221000FFF722FD80BD000080B584B002468DF836
:102220000F0002919DF80F0000F007008DF80F00DD
:102230009DF80F00402141EAC000C0B2009201F0B9
:1022400073FC00200190FFE7019807280ADCFFE7F4
:1022500002980199405C01F059FCFFE701980130B8
:102260000190F1E704B080BD80B540F29B10C2F24E
:102270000000017841F004010170007840F008008E
:1022800001F052FC80BD000080B5022001F04CFC42
:102290004FF4FA60FFF7E0FC80BD000080B584B029
:1022A00001468DF80F009DF80F0040F29E12C2F219
:1022B0000002107040F29A10C2F20000082303706E
:1022C00040F29C10C2F20000002303701078022834
:1022D00009DBFFE740F29C10C2F20000017841F0F8
:1022E0000801017008E040F29C10C2F20000017881
:1022F00041F004010170FFE740F29A10C2F20000C1
:102300000078FFF7D3FC4FF47A70FFF777FC3020AA
:10231000029001F0A9FE41F294100190FFF79CFC9D
:10232000029801F0A1FE0198FFF796FC029801F0D7
:102330009BFE0198FFF790FC202001F095FE6420A1
:10234000FFF78AFC40F29C10C2F20000007840F0D7
:10235000200001F0E9FB40F29B10C2F200000421D2
:102360000170FFF781FFFFF74DFF40F29D10C2F2B1
:10237000000002210170007840F0040001F0D4FB5D
:102380000198FFF769FC40F22601C2F2000100202B
:10239000FFF742FF40F22E01C2F200010120FFF7D9
:1023A0003BFFFFF771FF04B080BD000080B582B035
:1023B0000190FFE701980078002807D0FFE7019817
:1023C000411C0191007801F0A1FBF3E702B080BD50
:1023D00080B586B00A4603468DF817008DF81610B2
:1023E00044F64450C0F600000168D0F804C0D0F8AC
:1023F00008E0C0680490CDF80CE0CDF808C0019169
:102400009DF8160040F29E11C2F200010978884240
:1024100009DBFFE740F29E10C2F2000000780138AD
:102420008DF81600FFE79DF817009DF8161001AA19
:1024300052F82110084440F08000C0B201F074FB53
:1024400006B080BD86B005900491002003900290F4
:1024500001908DF803000598808A02900598008B02
:10246000019001980004019002980199084320F01E
:102470007F400390039804990840884204D1FFE705
:1024800001208DF8030003E000208DF80300FFE732
:102490009DF8030006B0704782B00A4601908DF89F
:1024A00003109DF80300002806D0FFE7019801887B
:1024B00041F00101018005E00198018821F001014E
:1024C0000180FFE702B0704782B00A4601908DF8A4
:1024D00003109DF80300002806D0FFE7019801884B
:1024E00041F48071018005E00198018821F4807138
:1024F0000180FFE702B0704782B00A4601908DF874
:1025000003109DF80300002806D0FFE7019801881A
:1025100041F40071018005E00198018821F4007107
:102520000180FFE702B0704780B58CB00B900A9134
:102530000020ADF82600ADF824000421ADF82210EB
:1025400041F20021C0F27A0107910B998988ADF818
:102550002610BDF8261021F03F01ADF8261002A983
:102560000190084600F05CFE0498079007984DF62D
:102570008361C4F21B31A0FB0101890CADF824106A
:10258000BDF82410BDF826201143ADF82610BDF883
:1025900026100B9A91800B990A8822F001020A807A
:1025A0000199ADF826100A9A126848F2A063C0F2A9
:1025B00001039A421ED8FFE707980A990968490063
:1025C000B0FBF1F0ADF82200BDF82200032804DCD6
:1025D000FFE70420ADF82200FFE7BDF82200BDF8B8
:1025E00026100843ADF82600BDF8240001300B99F1
:1025F000088447E00A98C0884BF6FF7188420AD1E8
:10260000FFE707980A99096801EB4101B0FBF1F077
:10261000ADF822000FE007980A9909681922514382
:10262000B0FBF1F0ADF82200BDF8220040F480408C
:10263000ADF82200FFE7BDF822000005002807D111
:10264000FFE7BDF8220040F00100ADF82200FFE7EF
:10265000BDF82200BDF82610084340F40040ADF854
:102660002600BDF824004FF49671484344F6D35138
:10267000C1F26201A0FB0101012202EB91110B9A50
:102680001184FFE7BDF826000B9988830B98018819
:1026900041F0010101800B980088ADF82600BDF8DB
:1026A00026004FF6F5310840ADF826000A988188DB
:1026B00040890843BDF826100843ADF82600BDF850
:1026C00026000B9908800A988189008908430B9994
:1026D00008810CB080BD000080B58AB008200121BF
:1026E000049100F07DFD4FF40010049900F058FDB6
:1026F00009A80390FFF778FDC020ADF8240003205F
:102700008DF826001C208DF8270040F60040C4F20A
:1027100001000399FFF76CFC05A8029000F052F845
:102720000020ADF818004BF6FF71ADF81A10ADF8A7
:102730001C004FF48060ADF81E004FF48040ADF8EF
:10274000200048F2A060C0F20100059045F2004070
:10275000C4F2000001900299FFF7E6FE0198049987
:10276000FFF79AFE0AB080BD82B013468C460190F6
:102770008DF803108DF802209DF80200002807D084
:10278000FFE79DF8030040F001008DF8030006E02C
:102790009DF8030000F0FE008DF80300FFE79DF8B0
:1027A00003000199088202B07047000082B00A4617
:1027B00001908DF803109DF803000199088202B082
:1027C0007047000081B00090009841F288310160AC
:1027D00000980021818000984BF6FF72C28000981B
:1027E00001810098418100984FF48041818101B0BE
:1027F0007047000080B582B000208DF807008DF88A
:10280000060000F079F940F29800C2F2000000F0F2
:10281000DBF9002840F09680FFE700208DF80700E4
:10282000FFE79DF80700042864DCFFE79DF8070038
:1028300000EB800040F2A001C2F20001085C40F20F
:102840009801C2F20001097888424CD1FFE79DF857
:10285000070000EB800040F2A001C2F20001084432
:10286000407840F29801C2F20001497888423AD19A
:10287000FFE79DF8070000EB800040F2A001C2F2E4
:1028800000010844807840F29801C2F20001897882
:10289000884228D1FFE79DF8070000EB800040F256
:1028A000A001C2F200010844C07840F29801C2F2CF
:1028B0000001C978884216D1FFE79DF8070000EBB8
:1028C000800040F2A001C2F200010844007940F209
:1028D0009801C2F200010979884204D1FFE7012082
:1028E0008DF80600FFE7FFE79DF8070001308DF83F
:1028F000070096E79DF80600012804D1FFE70520B0
:1029000000F002FB1DE0FFF77DFC00200090009925
:10291000FFF75EFD44F6F850C0F60000FFF746FDF5
:1029200001210098FFF754FD44F66A50C0F60000FC
:10293000FFF73CFD4FF4FA60FFF760F9FFF762FC28
:10294000FFE7FFE702B080BD80B582B040F2000033
:10295000C2F200000078233801462128019135D8C1
:102960000199DFE801F01433333333333311333358
:102970003333333333333333333333333333333327
:1029800033333333151E2B2CFEF7D0FF1FE01EE030
:1029900040F22500C2F2000001210170FFF732FC75
:1029A00015E040F2A410C2F200000521017040F2CF
:1029B0002500C2F200000221017008E007E040F2A9
:1029C000A410C2F200000021017000E0FFE702B095
:1029D00080BD000040F20000C2F2000000783038F4
:1029E000092836D8FFE740F22000C2F20000007844
:1029F000012812D1FFE740F20000C2F20000007887
:102A000040F2A311C2F200010A78531C0B7040F28D
:102A10009F11C2F2000188541AE040F22000C2F275
:102A200000000078022812D1FFE740F20000C2F255
:102A30000000007840F2A311C2F200010A78531C92
:102A40000B7040F22101C2F200018854FFE7FFE75A
:102A500000E0FFE77047000080B586B005900020D9
:102A60008DF811000D2102900846029901F00CFB2F
:102A700005989321017005982021417005986946B9
:102A800003AA0A600C210222019008460199019BC9
:102A900000F02CF98DF813009DF81300002827D1C1
:102AA000FFE700208DF81200FFE79DF812000328D1
:102AB00010DCFFE705989DF81210405C9DF811109E
:102AC00048408DF81100FFE79DF8120001308DF8A5
:102AD0001200EAE79DF8110005999DF81220895C23
:102AE000884204D0FFE702208DF81300FFE7FFE7DC
:102AF0009DF8130006B080BD80B584B050208DF8DD
:102B0000080000208DF8090002A8821C0221019013
:102B1000FEF7AEFE684603A901600C20042201996D
:102B2000019B00F0E3F804B080BD000080B586B0E2
:102B30000820012100F054FB4FF48050ADF8140040
:102B400003218DF8161010218DF8171040F6004162
:102B5000C4F2010105AA04900846039111460292AD
:102B6000FFF746FA4FF40060ADF8140003990190A6
:102B700008460299FFF73CFA03980499FFF728FBEF
:102B800003980199FFF724FB00F06CF800F064F85B
:102B90002A208D2101F078FA2B203E2101F074FAD1
:102BA0002D201E2101F070FA2C20002101F06CFA7A
:102BB0001520402101F068FA11203D2101F064FA4E
:102BC000FEF748FE06B080BD80B582B00190FFF7E9
:102BD00093FF0199262000F011F88DF803009DF86D
:102BE0000300002806D1FFE70198FFF735FF8DF8B5
:102BF0000300FFE79DF8030002B080BD80B588B0F8
:102C000002468DF81F0006910D200721039201F066
:102C10003BFA9DF81F00069908700698694604AAB9
:102C20000A600C210122029008460299029B00F0E2
:102C30005DF88DF817009DF81700002804D1FFE714
:102C40000498102804D0FFE702208DF81700FFE752
:102C50009DF8170008B080BD80B501200F2101F05C
:102C600013FA80BD80B588B009200121019100F0E0
:102C7000B7FA4FF48040019900F092FA4FF46040A7
:102C8000ADF81C0018208DF81F0003208DF81E00E1
:102C900040F60040C4F2010007A9FFF7A9F910208F
:102CA000ADF814000020ADF808004FF48271ADF8C3
:102CB0000A10ADF80C00ADF80E00ADF810004FF49E
:102CC0000071ADF81210ADF816000720ADF818002D
:102CD00043F60000C4F2000002A9009000F0F2FDEB
:102CE0000098019900F0A6FD08B080BD10B58CB029
:102CF000DDF838C0964604468DF82F000A918DF80D
:102D00002720089302208DF81F0000208DF81E0058
:102D10008DF81D009DF82F0001460C2804910BD062
:102D2000FFE704980E280ED1FFE712208DF81E0051
:102D300010208DF81D0007E077208DF81E00302050
:102D40008DF81D0000E0FFE79DF81E0040F08001B7
:102D5000022001F099F9042080210391FEF7FEFE84
:102D60000A20039900F0EEFE01200021029101F0FB
:102D70008BF902980590FFE705989DF82710884287
:102D80000BD2FFE70A980599415C092001F07CF914
:102D9000FFE7059801300590EEE79DF82F10012020
:102DA00001F072F99DF82F000C2805D1FFE70D20E6
:102DB000802100F0C7FEFFE74FF4FA600590FFE7BF
:102DC000042000F029FB8DF81B00059801380590C0
:102DD000FFE7059800210028019112D0FFE79DF838
:102DE0001B000021C007002801910AD1FFE79DF8D0
:102DF0001B009DF81D100840B0FA80F040090190BA
:102E0000FFE70198C0070028DAD1FFE70D208021F5
:102E1000FEF7A4FE059800286AD0FFE7062000F020
:102E2000FBFA10F01B0F5ED1FFE700208DF81F00AA
:102E30009DF81B009DF81E100840C007002804D014
:102E4000FFE701208DF81F00FFE79DF82F000C28F9
:102E500048D1FFE70A2000F0DFFA8DF81B000C20B4
:102E600000F0DAFA00F007008DF81C009DF81C0055
:102E700000280AD0FFE79DF81B009DF81C1001EB0D
:102E8000C00008380E99086005E09DF81B00C000DE
:102E90000E990860FFE79DF81B00002804D1FFE7AA
:102EA00001208DF81B00FFE79DF81B00112804DBB3
:102EB000FFE710208DF81B00FFE700200590FFE7DB
:102EC00005989DF81B1088420BD2FFE7092000F0FF
:102ED000A3FA0899059A8854FFE7059801300590F0
:102EE000EEE7FFE703E002208DF81F00FFE7FFE7B2
:102EF0009DF81F000CB010BD40F64000C4F2000069
:102F000040F272610180704780B58CB001468DF847
:102F10002F000691FFF776F9002005900599FFF73D
:102F200057FA44F60E60C0F60000FFF73FFA0121A1
:102F30000598FFF74DFA44F62460C0F60000FFF74D
:102F400035FAFFF7D9FF4FF4FA60FEF757FEFFF7A7
:102F500059F99DF82F0040F2A411C2F20001087047
:102F6000FFE740F22500C2F200000078012830D0CF
:102F7000FFE7002004900499FFF72AFA44F6EB508B
:102F8000C0F60000FFF712FA01210498FFF720FABB
:102F900044F67A50C0F60000FFF708FA40F2A41099
:102FA000C2F2000090F9002044F68851C0F60001FA
:102FB0000DF11F000390FDF75DF90399029008469B
:102FC000FFF7F4F944F62E60C0F60000FFF7EEF9C3
:102FD00015E0002001900199FFF7FAF944F624600A
:102FE000C0F60000FFF7E2F901210198FFF7F0F9C0
:102FF00044F6DC50C0F60000FFF7D8F9FFE700F018
:1030000095FC40F20001C2F2000108700878FF2828
:1030100003D0FFE7FFF798FCFFE7FFE740F2A410BB
:10302000C2F2000090F900000121002800910BDCA1
:10303000FFE740F22500C2F2000000780138B0FA44
:1030400080F040090090FFE70098C00700287FF457
:1030500088AFFFE7FEF79EFD4FF4FA70FEF7CEFD56
:10306000FFF7D0F8FEF79EFD0CB080BD80B58CB0A8
:1030700004200121039100F093F86420ADF82400AE
:1030800043F63F00ADF828000020ADF82A00ADF867
:10309000260040F60001C4F2000109AA0290084689
:1030A0000191114600F004FF0198039900F050FED1
:1030B0006020ADF814000398ADF816000299ADF841
:1030C0001C10ADF81A1005A9019800F059FE08204F
:1030D000019900900846009900F0CAFE00980399F3
:1030E00000F07EF84FF40070ADF8100018208DF855
:1030F000130002208DF8120040F60040C4F20100D7
:1031000004A9FEF775FF0CB080BD000080B584B047
:1031100001468DF80F009DF80F0040F00400029169
:10312000FEF7C4FD14200190FEF796FD9DF80F00F8
:1031300000F0FB00FEF7BAFD0198FEF78DFD04B02C
:1031400080BD000080B582B001468DF80700FFE722
:1031500043F60000C4F20000022100F083FB0028C7
:1031600001D1FFE7F4E79DF8071043F60000C4F231
:10317000000000F09BFBFFE743F60000C4F20000F4
:10318000012100F06FFB002801D1FFE7F4E743F6CF
:103190000000C4F2000000F083FBC0B202B080BDAA
:1031A00082B00A4601908DF803109DF803000028B4
:1031B00009D0FFE7019841F21C01C4F202010A683C
:1031C0001043086009E0019841F21C01C4F20201B9
:1031D0000A6822EA00000860FFE702B070470000BA
:1031E00082B00A4601908DF803109DF80300002874
:1031F00009D0FFE7019841F21801C4F202010A6800
:103200001043086009E0019841F21801C4F202017C
:103210000A6822EA00000860FFE702B07047000079
:1032200086B005900020049003900290019041F236
:103230000400C4F20200006800F00C00049004983E
:103240000028009008D0FFE7009804280BD0FFE783
:10325000009808280ED048E0059841F20021C0F2FD
:103260007A01016048E0059841F20021C0F27A013C
:10327000016041E041F20400C4F20200016801F47F
:1032800070110391006800F48030029003980221CD
:1032900001EB904003900298002809D1FFE70398C2
:1032A00040F60011C0F23D014843059908601BE05B
:1032B00041F20400C4F2020000688003002809D52E
:1032C000FFE7039840F60011C0F23D01484305991D
:1032D000086008E0039841F20021C0F27A014843F7
:1032E00005990860FFE7FFE706E0059841F2002135
:1032F000C0F27A010160FFE741F20400C4F202006B
:10330000016801F0F00104910499090904910499FC
:1033100044F63452C0F60002515C019105990B68E5
:10332000DDF804C023FA0CF34B60016801F4E0619E
:1033300004910499090A04910499515C0191059939
:103340004B68DDF804C023FA0CF38B60016801F4CC
:10335000605104910499C90A04910499515C019146
:1033600005994A68019BDA40CA60006800F4404051
:1033700004900498800B0490049844F63051C0F6F1
:103380000001085C01900598C168019AB1FBF2F157
:10339000016106B07047000080B582B000208DF852
:1033A0000700FFE79DF80700312832DCFFE740F215
:1033B0000600C2F2000000884FF6027188420AD16E
:1033C000FFE79DF8070048F60001C0F6000141EA5A
:1033D000C000009009E09DF8070048F20001C0F627
:1033E000000141EAC0000090FFE700989DF8071037
:1033F00001EB810140F2A002C2F200021144052259
:10340000FEF7F6FCFFE79DF8070001308DF8070096
:10341000C8E702B080BD000080B586B001468DF8D7
:10342000170040F60040C4F201004FF480520490AF
:10343000039111460292FEF7BFFE9DF8170080210E
:1034400060F346010846FFF77DFE00210190084623
:10345000FFF778FE8DF8160004980299FEF7B8FE83
:103460009DF8160006B080BD80B58AB000208DF8AA
:1034700027008DF826008DF825000890FEF7C2FE83
:10348000C820FEF7BBFBFFE7002007900799FEF777
:103490009FFF44F6BD50C0F60000FEF787FF0121F4
:1034A0000798FEF795FF44F6B150C0F60000FEF70E
:1034B0007DFF07988DF827008DF8250040F29800D1
:1034C000C2F20000FFF780FB002840F0A281FFE776
:1034D00000208DF82600FFE79DF8260004281CDC5C
:1034E000FFE79DF8260040F20101C2F20001095CED
:1034F00040F29802C2F20002105C814206D1FFE75E
:103500009DF8270001308DF82700FFE7FFE79DF8C1
:10351000260001308DF82600DEE79DF827000528FB
:1035200000F06F81FFE700208DF82600FFE79DF88F
:103530002600042800F34181FFE79DF8260000EBF8
:10354000800040F2A001C2F20001085C40F2980144
:10355000C2F200010978884240F02881FFE79DF817
:10356000260000EB800040F2A001C2F200010844F6
:10357000407840F29801C2F200014978884240F058
:103580001581FFE79DF8260000EB800040F2A001C6
:10359000C2F200010844807840F29801C2F20001B2
:1035A0008978884240F00281FFE79DF8260000EB11
:1035B000800040F2A001C2F200010844C07840F24D
:1035C0009801C2F20001C978884240F0EF80FFE71D
:1035D0009DF8260000EB800040F2A001C2F200013D
:1035E0000844007940F29801C2F20001097988424A
:1035F00040F0DC80FFE79DF8260000EB800040F201
:10360000A001C2F20001FF220A549DF8260000EB3F
:103610008000084442709DF8260000EB80000844BA
:1036200082709DF8260000EB80000844C2709DF86F
:10363000260000EB80000844027140F20600C2F24E
:10364000000000884FF60271884243D1FFE740F244
:103650000600C2F200004FF60171018048F200003E
:10366000C0F60000FEF77EFB00200890FFE70898F8
:10367000042819D8FFE7089848F20001C0F60001B5
:1036800001EBC00100EB800040F2A002C2F2000298
:1036900010440622069008460699FEF717FCFFE73D
:1036A000089801300890E2E749F20000C0F60000F7
:1036B0000590FEF757FB40F20601C2F2000102221C
:1036C0000598FEF703FC48F60000C0F60000FEF780
:1036D00049FB42E040F20600C2F200004FF60271E0
:1036E000018048F60000C0F60000FEF73BFB00201A
:1036F0000890FFE70898042819D8FFE7089848F6CB
:103700000001C0F6000101EBC00100EB800040F2B7
:10371000A002C2F200021044062204900846049956
:10372000FEF7D4FBFFE7089801300890E2E749F282
:103730000000C0F600000390FEF714FB40F2060103
:10374000C2F2000102220398FEF7C0FB48F200001B
:10375000C0F60000FEF706FBFFE7FEF753FD002072
:1037600002900299FEF734FE44F65450C0F6000071
:10377000FEF71CFE01210298FEF72AFE44F68F5048
:10378000C0F60000FEF712FE4FF47A70FEF736FA2C
:10379000FEF738FD9DF8250001308DF825009DF8D5
:1037A0002500012801DBFFE707E0FFE7FFE79DF8C1
:1037B000260001308DF82600B9E69DF82500002886
:1037C0001ED1FFE7FEF71EFD002001900199FEF7D4
:1037D000FFFD44F6BD50C0F60000FEF7E7FD0121F5
:1037E0000198FEF7F5FD44F6D250C0F60000FEF752
:1037F000DDFD4FF47A70FEF701FAFEF703FDFFE7F7
:1038000006E040F29E00C2F20000002101700EE0CE
:10381000FFE740F29E00C2F200000078002805D1C8
:10382000FFE74FF47A70FEF7E9F900E02CE60AB002
:1038300080BD000082B00A4601908DF803109DF80B
:103840000300002806D0FFE70198018841F04001FD
:10385000018005E00198018821F040010180FFE727
:1038600002B0704782B00A460190ADF80210002005
:103870008DF8010001980089BDF80210084000048D
:10388000002804D0FFE701208DF8010003E00020AC
:103890008DF80100FFE79DF8010002B070470000BD
:1038A00081B000900098808901B0704782B00A46CC
:1038B0000190ADF80210BDF802000199888102B0B4
:1038C0007047000083B0029001910020ADF8020023
:1038D00002980088ADF80200BDF8020000F44150E3
:1038E000ADF8020001980188428811438288114393
:1038F000C2881143028911434289114382891143CD
:10390000C0890843BDF802100843ADF80200BDF8B5
:103910000200029908800298818B21F40061818362
:103920000198008A0299088203B0704780B582B07E
:1039300000208DF80700FF218DF806108DF8070094
:10394000FFE79DF80700032800F3B580FFE79DF827
:10395000070040F20801C2F2000131F8101040F6F1
:103960000000C4F201000090FEF726FC012100983F
:10397000FEF706FC002819D1FFE7C820FEF73EF944
:1039800040F60000C4F201000121FEF7F9FB002817
:103990000BD1FFE79DF8070040F21001C2F20001D1
:1039A00011F820008DF80600FFE76FE040F60000F8
:1039B000C4F201000221FEF7E3FB00281AD1FFE761
:1039C000C820FEF71BF940F60000C4F201000221F6
:1039D000FEF7D6FB00280CD1FFE79DF8070040F268
:1039E0001001C2F2000101EB800040788DF8060062
:1039F000FFE74AE040F60000C4F201000421FEF7B0
:103A0000BFFB00281AD1FFE7C820FEF7F7F840F601
:103A10000000C4F201000421FEF7B2FB00280CD123
:103A2000FFE79DF8070040F21001C2F2000101EB30
:103A3000800080788DF80600FFE725E040F6000062
:103A4000C4F201000821FEF79BFB00281AD1FFE712
:103A5000C820FEF7D3F840F60000C4F201000821A8
:103A6000FEF78EFB00280CD1FFE79DF8070040F21F
:103A70001001C2F2000101EB8000C0788DF8060051
:103A8000FFE700E0FFE7FFE7FFE7FFE79DF807003C
:103A900040F20801C2F2000131F8101040F60000B7
:103AA000C4F20100FEF794FBFFE79DF80700013028
:103AB0008DF8070045E79DF8060002B080BD0000C4
:103AC00080B584B00A4603468DF80F008DF80E10BD
:103AD0009DF80F0000F0F0008DF80D009DF80F002C
:103AE00000018DF80C009DF80D009DF80E100843A4
:103AF0000292019300F0B8FA9DF80C009DF80E10A8
:103B0000084300F0B1FA04B080BD000080B582B077
:103B100001468DF807009DF807000122009111462B
:103B2000FFF7CEFF02B080BD80B582B001468DF8B0
:103B300007009DF80700002200911146FFF7C0FF23
:103B400002B080BD80B584B00A4603468DF80F00F0
:103B50008DF80E109DF80F0002920193FFF75CFCA8
:103B60008DF80D009DF80F009DF80D109DF80E20AA
:103B7000114300F089FA04B080BD000080B500F068
:103B800001F880BD83B000200290019041F2000056
:103B9000C4F20200016841F480310160FFE741F2A4
:103BA0000000C4F20200006800F4003001900298A6
:103BB00001300290FFE7019800210028009107D111
:103BC000FFE70298B0F5A06018BF01200090FFE762
:103BD0000098C0070028E2D1FFE741F20000C4F2DC
:103BE000020000688003002803D5FFE70120019050
:103BF00002E000200190FFE70198012850D1FFE783
:103C000042F20000C4F20200016841F010010160BC
:103C1000016821F007010160016841F002010160C3
:103C200041F20400C4F20200016801600168016011
:103C3000016841F480610160016821F47C11016038
:103C4000016841F4E811016041F20000C4F2020091
:103C5000016841F080710160FFE741F20000C4F2A9
:103C6000020000688001002801D4FFE7F5E741F277
:103C70000400C4F20200016821F003010160016840
:103C800041F002010160FFE741F20400C4F20200CA
:103C9000006800F00C00082801D0FFE7F4E700E01E
:103CA000FFE703B07047000080B541F20000C4F2A6
:103CB0000200016841F00101016041F20401C4F217
:103CC00002010A680023CFF6FF031A400A60026867
:103CD0004FF6FF73CFF6F6631A400260026822F4D3
:103CE00080220260086820F4FE00086041F20800AB
:103CF000C4F202004FF41F010160FFF73FFF4EF6D0
:103D00000850CEF200004FF00061016080BD00005D
:103D10001020C4F200000088C007002817D0FFE779
:103D20000C20C4F200000088C00700280FD0FFE775
:103D30001020C4F20000018821F00101018040F24E
:103D4000A410C2F20000017801390170FFE770474A
:103D500082B00A4601908DF803109DF803000028F8
:103D600006D0FFE70198018841F00101018005E0DC
:103D70000198018821F001010180FFE702B070473E
:103D800084B0039002910020ADF80600ADF8040065
:103D9000ADF802000398018C21F48051018403984E
:103DA000008CADF8040003988088ADF802000398F9
:103DB000808BADF80600BDF8060020F4E040ADF8B9
:103DC0000600BDF8060020F44070ADF80600029829
:103DD0000088BDF8061041EA0020ADF80600BDF8E5
:103DE000040020F40050ADF8040002980089BDF8EA
:103DF000041041EA0030ADF8040002984088BDF894
:103E0000041041EA0030ADF80400039842F6004186
:103E1000C4F20101884208D0FFE7039843F2004151
:103E2000C4F2010188420FD1FFE7BDF8020020F47F
:103E30008040ADF8020002988089BDF8021041EA86
:103E40008010ADF80200FFE7BDF8020003998880FA
:103E5000BDF80600039988830298C0880399A1F8E9
:103E60004000BDF804000399088404B070470000C6
:103E700082B00A460190ADF802100020ADF80000B3
:103E80000198808BADF80000BDF8000020F40060C0
:103E9000ADF80000BDF80200BDF8001041EA0020B6
:103EA000ADF80000BDF800000199888302B07047AA
:103EB00083B0029001910020ADF8020002980088C2
:103EC000ADF80200029842F60041C4F201018842B6
:103ED00025D0FFE7029843F20041C4F20101884275
:103EE0001DD0FFE70298B0F1804F18D0FFE702988D
:103EF00040F20041C4F20001884210D0FFE702986E
:103F000040F60001C4F20001884208D0FFE70298A1
:103F100040F60041C4F2000188420ED1FFE7BDF82F
:103F2000020020F07000ADF8020001984088BDF852
:103F300002100843ADF80200FFE7029841F20001C9
:103F4000C4F20001884216D0FFE7029841F2004116
:103F5000C4F2000188420ED0FFE7BDF8020020F451
:103F60004070ADF802000198C088BDF80210084307
:103F7000ADF80200FFE7BDF8020002990880019841
:103F8000808802998885019800880299088502989E
:103F900042F60041C4F20101884220D0FFE70298B6
:103FA00043F20041C4F20101884218D0FFE70298B1
:103FB00044F20001C4F20101884210D0FFE70298E8
:103FC00044F20041C4F20101884208D0FFE70298A0
:103FD00044F60001C4F20101884205D1FFE70198CF
:103FE000007A02990886FFE702980121818203B0D6
:103FF0007047000041F21C00C4F20200016841F069
:10400000010101602C20C4F2000042F20F71018016
:104010002420C4F20000002101802820C4F2000006
:1040200041F61F4101800C20C4F2000001210180F3
:104030001020C4F20000028822F0010202804FF03A
:10404000804001801420C4F2000001804EF2001074
:10405000CEF200004FF0805101604EF21C40CEF2D3
:10406000000040210170704780B582B001468DF894
:1040700007009DF807000091FDF718FE9DF8070066
:10408000FFF744F802B080BD80B588B00A46034609
:104090008DF81F008DF81E1040F60040C4F201009C
:1040A0004FF480510690059104920393FEF784F833
:1040B0009DF81F007E2101EA4000FFF743F89DF8BC
:1040C0001E1002900846FFF73DF806990190084639
:1040D0000599FEF77DF808B080BD000080B58AB074
:1040E00000200990FEF7C2FFFDF75CFDFDF750FFD1
:1040F000FEF7F2FA02200890FEF7D0F8FEF716FD60
:10410000FFF778FF40F2A610C2F2000049F200016A
:10411000C0F60001079008460799089AFDF768FE67
:10412000079801884FF60272914208D1FFE740F2EA
:104130000600C2F200004FF60271018007E040F273
:104140000600C2F200004FF601710180FFE7FFF7A1
:1041500023F9FFE7FFF7EAFB40F20001C2F200019A
:1041600008700878FF2803D0FFE7FEF733FCFFE76D
:1041700040F29F10C2F2000040F22101C2F20001A1
:10418000FDF718FD012820D1FFE7FEF73BF80020DE
:1041900006900699FEF71CF944F6B550C0F60000EB
:1041A000FEF704F94FF4FA70FDF728FD0520FEF73D
:1041B000ABFE40F29F10C2F200000699016040F28F
:1041C000A310C2F20000017032E040F29F10C2F270
:1041D000000040F22101C2F20001FDF7EBFC0028D3
:1041E00025D1FFE740F2A310C2F2000000780428B6
:1041F0001DD1FFE7FEF706F8002005900599FEF7B0
:10420000E7F844F63060C0F60000FEF7CFF84FF450
:10421000FA70FDF7F3FC40F29F10C2F2000005991E
:10422000016040F2A310C2F200000170FFE7FFE757
:10423000FDF74AFC40F29D01C2F2000108700878C7
:10424000022808D0FFE740F29E00C2F2000000788A
:10425000002848D0FFE7FDF7D5FF0020049004991F
:10426000FEF7B6F844F6A950C0F60000FEF79EF837
:104270004FF4FA70FDF7C2FC40F29F00C2F200005A
:104280000178013101700078012808D0FFE740F281
:104290009E00C2F200000078012803D1FFE7FDF77D
:1042A00069F81FE040F29F00C2F200000078022887
:1042B00008D0FFE740F29E00C2F20000007802281A
:1042C00003D1FFE7FFF7D0F80BE040F29F00C2F206
:1042D00000000021017040F29E00C2F20000017057
:1042E000FFE7FFE70CE040F29D00C2F2000000781B
:1042F000012803D1FFE7FEF77DFA00E0FFE7FFE7C3
:1043000040F29F00C2F200000078002826D1FFE7AB
:1043100040F29E00C2F20000007800281ED1FFE7A4
:1043200040F2A310C2F200000078002816D1FFE787
:10433000002003900399FEF74BF844F60160C0F6A5
:104340000000FEF733F801210398FEF741F844F628
:10435000C550C0F60000FEF729F856E040F2A31061
:10436000C2F20000007800281BD0FFE7FDF74AFFEB
:10437000002002900299FEF72BF844F64F60C0F639
:104380000000FEF713F801210298FEF721F840F231
:104390009F10C2F20000FEF709F81920FDF72EFC6D
:1043A00032E040F29F10C2F2000040F22101C2F25E
:1043B0000001FDF7FFFB002825D1FFE740F2A31025
:1043C000C2F20000007804281DD1FFE7FDF71AFFB4
:1043D000002001900199FDF7FBFF44F63060C0F624
:1043E0000000FDF7E3FF4FF4FA70FDF707FC40F221
:1043F0009F10C2F200000199016040F2A310C2F2C6
:1044000000000170FFE7FFE7FFE7A3E65FEA400C6B
:1044100008BF91F0000F4FEA8C234FEAC12243EA14
:1044200051514FEA1C5018BF00F5F0404FEA3000E0
:1044300018BF41F000415FEA6C5C00F02980BCF1DC
:10444000FF3F08BF40F080407047130C06BF1204C6
:104450004FF0100C4FF0000C130E04BF12020CF1C1
:10446000080C130F04BF12010CF1040C930F04BFCE
:1044700092000CF1020CD30F04BF52000CF1010C9E
:1044800011464FF00002A0F11F00A0EB0C00704796
:1044900011F0004F08BF704731F000413FF4D5AF35
:1044A0000B0C06BF09044FF0100C4FF0000C0B0E64
:1044B00004BF09020CF1080C0B0F04BF09010CF139
:1044C000040C8B0F04BF89000CF1020CCB0F04BF4E
:1044D00049000CF1010CCCF1200322FA03F341EA6C
:1044E000030102FA0CF2A0EB0C0000F1010070478E
:1044F00023F07F4720F07F4C80EA030000F000406B
:10450000ACEB070303F57C5303F1FF032DE980496E
:1045100009B44FEA144324EA03484FEA154B25EA4D
:104520000B4E0FF2042606EB13273E7803FB0667BB
:10453000C7F5000707FB06F64FEAD64606F1020666
:104540004FEA543707FB066CCCF1005C4FEA1C477E
:104550002CEA074C0CFB06F507FB06F404EB1546AA
:104560004FEA961649085FEA320234BF00204FF046
:1045700000404FEAD13706FB07FC4FEA1C4C0CFB0E
:104580000BF7D21B03FB0CF761EB07010CFB0EF7DB
:10459000B0EB074072EB17420CFB08F734BFA2EBFD
:1045A0000742B2EB074261EB17414FEA0C444FEA76
:1045B000910706FB07FC4FEA1C4C0CFB0BF7B0EB1A
:1045C000C74072EB573203FB0CF734BFA2EBC74274
:1045D000B2EBC74261EB57310CFB0EF7B0EBC700F3
:1045E00072EB57720CFB08F734BFA2EBC702B2EBB9
:1045F000C70261EB57714FEA816141EA92114FEABC
:10460000826242EA90124FEA806004EBCC04039F7E
:104610004FEAD13706FB07FC4FEA1C4C0CFB0BF7AB
:10462000D21B03FB0CF761EB07010CFB0EF7B0EBA1
:10463000074072EB17420CFB08F734BFA2EB0742AE
:10464000B2EB074261EB17414FEA8C5504EB9C2417
:104650004FEA910706FB07FC4FEA1C4C0CFB0BF7DB
:10466000B0EBC74072EB573203FB0CF734BFA2EB41
:10467000C742B2EBC74261EB57310CFB0EF7B0EB10
:10468000C70072EB57720CFB08F734BFA2EBC702EE
:10469000B2EBC70261EB57714FEA816141EA9211B7
:1046A0004FEA826242EA90124FEA806015EB4C2595
:1046B00044F100044FEAD13706FB07FC4FEA1C4CDB
:1046C0000CFB0BF7D21B03FB0CF761EB07010CFB98
:1046D0000EF7B0EB074072EB17420CFB08F734BF44
:1046E000A2EB0742B2EB074261EB17414FEA81317F
:1046F00041EA92414FEA823242EA90424FEA8030E8
:104700004FEA0C7615EB1C1544F1000448EA03430C
:104710004EEA0B484FF0000EB2EB080C71EB0307AA
:1047200024BF624639464EEB0E0E4FF0000B0018C8
:10473000524149414BEB0B0BB2EB080C71EB0307F9
:104740007BF1000B24BF624639464EEB0E0E4FF054
:10475000000B0018524149414BEB0B0BB2EB080C1C
:1047600071EB03077BF1000B24BF624639464EEB29
:104770000E0E51EA020718BF46F0010616EB0E7640
:1047800055F1000254F1000103D5BDE88901BDE8EF
:104790000088BDE88901BDE80048B619524141EBE7
:1047A0000101A3F10103704780807F7E7D7C7B7ACD
:1047B0007978777676757473727171706F6E6E6DCD
:1047C0006C6C6B6A6A696868676666656464636373
:1047D00062616160605F5F5E5E5D5D5C5C5B5B5AF9
:1047E0005A59595858575756565555555454535366
:1047F00052525251515050504F4F4F4E4E4D4D4DC1
:104800004C4C4C4B4B4B4A4A4A494949484848470B
:104810004747474646464545454444444443434349
:1048200043424242424141419C46002B30D47700F2
:104830002BD04FEA37071CB503B44FF010004FF0F0
:104840001001BAF1000F06D0BCF1000FDCBF40F040
:10485000080040F008014FF000000FBCBDE8104018
:104860000BF1010BBBF1010F08BF5FEA170722BF75
:1048700012F1010211F101014FF0004143F1000377
:1048800000F0004043EA00007047F9D35708D0E732
:1048900046EA06464FEA164613F1400F1FDD13F1B4
:1048A000200FDFBF16430A46002120335B42BED0F3
:1048B000C3F1200746EA06464FEA164602FA07F712
:1048C00046EA070622FA03F2C3F1200701FA07F7C6
:1048D00042EA070221FA03F14FF00003A7E746EA94
:1048E000020646EA06464FEA164646EA0106BCBFFD
:1048F00046EA0646360C4FF000034FF000024FF038
:10490000000194E72DE9804C70B49A46934691E8F3
:10491000380007C831EA400C48BF34EA430C03D5DD
:10492000FFF7E6FDFFF780FFF0BCBDE8008C2DE946
:10493000804C70B49A46934691E8380007C810F04E
:10494000804F08BF13F0804F03D100F005F8FFF748
:104950006BFFF0BCBDE8008C20F07F4723F07F4C5C
:1049600080EA030000F0004007EB0C03A3F57C5342
:10497000A3F1FE0392F0000F00F0B38095F0000F5A
:1049800000F077802DE901494FEA114021EA004803
:104990004FEA144624EA064700FB06FC08FB06F62D
:1049A00007FB08F818EB06484CEB164C00FB07F722
:1049B00018EB07484CEB17404FEA124B22EA0B4E1C
:1049C0004FEA154625EA06470BFB06FC0EFB06F6EA
:1049D00007FB0EFE1EEB064E4CEB164C0BFB07F7CF
:1049E0001EEB074E4CEB174B18EB0B0840F1000089
:1049F00018EB0E0B58EB000840F100008F1A4FF037
:104A000000014FF000063CBFC943661B14BFB5EB65
:104A1000040C00213CBFC943F61B4FEA174427EAA8
:104A200004454FEA1C472CEA074C04FB076205FBD0
:104A300007F70CFB05F616EB074642EB174204FBA3
:104A40000CFC16EB0C4642EB1C421BEB060658EB2B
:104A5000020241414EEA8E0E46EA9E0601D5BDE8AD
:104A60000189B619524141EB0101A3F10103BDE8EF
:104A700001894FEA144524EA05464FEA114721EA25
:104A8000074C05FB07F406FB07F70CFB06F111EBDF
:104A9000074144EB174405FB0CFC11EB0C4144EBC4
:104AA0001C444FEA124722EA074C05FB07F206FBBB
:104AB00007F70CFB06F616EB074642EB174205FB21
:104AC0000CFC16EB0C4642EB1C456A1854F1000135
:104AD00048BF7047B619524141EB0101A3F10103F0
:104AE000704795F0000F37D04FEA114221EA024695
:104AF0004FEA144724EA074C02FB07F106FB07F7CD
:104B00000CFB06F414EB074441EB174102FB0CFCD1
:104B100014EB0C4441EB1C414FEA154725EA074CC6
:104B200002FB07F506FB07F70CFB06F616EB07463C
:104B300045EB174502FB0CFC16EB0C4645EB1C4203
:104B4000121951F1000148BF7047B619524141EBAB
:104B50000101A3F1010370474FEA144524EA054619
:104B60004FEA114721EA074C05FB07F106FB07F75F
:104B70000CFB06F212EB074241EB174105FB0CFC64
:104B800012EB0C4251EB1C414FF0000648BF70473E
:104B9000921841EB0101A3F101037047490050EA6B
:104BA000C12018BF04204A0D18BF40F0010040F298
:104BB000FF72B2EB515F08BF40F00200012808BF4E
:104BC0000520704730380A2801D2012070470020A4
:104BD0007047000010B500290AD00878002807D0D7
:104BE00005487844FCF77EFB002801D0002010BD6A
:104BF0000248784410BD0000960200008E020000BA
:104C000010B500290AD00878002807D00548784454
:104C1000FCF768FB002801D0002010BD0248784452
:104C200010BD0000860200007E020000FBF764BF9A
:104C3000FCF798B80000000000000000303132336B
:104C400034353637383941424344454640305800C0
:104C500030313233343536373839616263646566F2
:104C6000403078000400000800000000000000024E
:104C700000010000103031323334353637383961B5
:104C800062636465667870003031323334353637AC
:104C90003839414243444546585000000240000024
:104CA000000000A00000000005400000000000C857
:104CB000000000000C4000000000409C00000000CC
:104CC000194000000020BCBE00000000344000007D
:104CD000BFC91B8E00000004B5400000504BCFD070
:104CE0006607E2CF010000006C4100003E8251AA3D
:104CF000DFEEA73401000000D9420000DCB5A0E2DD
:104D00003A301F97FFFFFFFFB4450000FD25A0C804
:104D1000E9A3C14FFFFFFFFFFF3F0000000000803D
:104D200000000000FF3F00000000008000000000C5
:104D3000020406080000000001020304010203044B
:104D400006070809000000004000000014000000F1
:104D500054000000444120584F4120544845200051
:104D60005448454D205448452000544845204B4860
:104D70004F4E472044554E47200043554120444F55
:104D80004E4720534155200025302E3164200054D9
:104D900048414E4820434F4E47212121005448416D
:104DA00054204241492121210044414E4720544191
:104DB000492E2E2E004D4F204B484F4100584F4159
:104DC00020544845004D4F49204E484150205448FA
:104DD0004500544845205452414E47004E48414EEC
:104DE000204220444520444F4E4700435541205324
:104DF000415020444F4E47004E484150204C4149BD
:104E00000058494E204348414F2042414E005849E6
:104E10004E204D4F492056414F00544845204441B3
:104E200020434F00435541204441204D4F00530043
:104E3000534149204D4154204B48415500444F496E
:104E4000204D4154204B484155004E484150204D83
:104E50004154204B48415500A44F00080000002059
:104E60003800000028010008DC4F0008380000204E
:104E700070070000440100081C000000430000000F
:104E8000F8FFFFFF0C0000000E0000000F00000004
:104E90002E0000001001000043000000F8FFFFFF9B
:104EA000004040404040404040404141414141403D
:104EB00040404040404040404040404040404040F2
:104EC0004005020202020202020202020202020281
:104ED0000220202020202020202020020202020286
:104EE00002029090909090901010101010101010DE
:104EF00010101010101010101010101002020202EA
:104F0000020288888888888808080808080808082D
:104F10000808080808080808080808080202020229
:104F20004000000000000000000000000000000041
:104F30000000000000000000000000000000000071
:104F40000000000000000000000000000000000061
:104F50000000000000000000000000000000000051
:104F60000000000000000000000000000000000041
:104F70000000000000000000000000000000000031
:104F80000000000000000000000000000000000021
:104F90000000000000000000000000000000000011
:104FA00000000000FF837BFD2F2AFFFF1000200080
:104FB000400080003134372A3235383033363923D7
:104FC0004142434401303030300200191B060C1BB3
:0C4FD0001300181806090809060000006C
:0400000508000235B8
:00000001FF
