:020000040800F2
:10000000D0060020890100084B120008AD0E000840
:10001000491200088F020008A71200080000000023
:100020000000000000000000000000004F12000867
:1000300091020008000000004D1200085112000853
:10004000A3010008A3010008A3010008A301000800
:10005000A3010008A3010008930200089902000808
:10006000A3010008A3010008A3010008A3010008E0
:10007000A3010008A3010008A3010008A3010008D0
:10008000A3010008A3010008A3010008A3010008C0
:10009000A3010008A3010008A3010008A3010008B0
:1000A000A3010008A3010008A3010008A3010008A0
:1000B000A3010008A301000800000000A30100083C
:1000C000A30100080000000000000000A3010008D8
:1000D00000000000A3010008A301000800000000C8
:1000E000A3010008A3010008A301000800F002F822
:1000F00000F03AF80AA090E8000C82448344AAF188
:100100000107DA4501D100F02FF8AFF2090EBAE885
:100110000F0013F0010F18BFFB1A43F0010318473B
:10012000E418000004190000103A24BF78C878C110
:10013000FAD8520724BF30C830C144BF04680C60ED
:10014000704700000023002400250026103A28BF35
:1001500078C1FBD8520728BF30C148BF0B60704739
:100160001FB51FBD10B510BD00F058F81146FFF7C0
:10017000F7FF01F01FFA00F076F803B4FFF7F2FF83
:1001800003BC00F07DF8000009488047094800479B
:10019000FEE7FEE7FEE7FEE7FEE7FEE7FEE7FEE737
:1001A000FEE7FEE704480549054A064B7047000094
:1001B000A5120008ED000008D0000020D0060020A5
:1001C000D0020020D00200204FF0000200B51346FC
:1001D00094469646203922BFA0E80C50A0E80C5067
:1001E000B1F12001BFF4F7AF090728BFA0E80C5018
:1001F00048BF0CC05DF804EB890028BF40F8042B11
:1002000008BF704748BF20F8022B11F0804F18BF7D
:1002100000F8012B7047704770477047754600F033
:100220002BF8AE4605006946534620F00700854688
:1002300018B020B5FFF7B6FFBDE820404FF000062C
:100240004FF000074FF000084FF0000B21F00701BE
:10025000AC46ACE8C009ACE8C009ACE8C009ACE801
:10026000C0098D46704710B50446AFF300802046A4
:10027000BDE81040FFF781BF0048704770000020C4
:1002800001491820ABBEFEE7260002007047FEE7DA
:100290007047012000F082B8022000F07FB8000013
:1002A00070B5044600F06CF90546601C02D00448A5
:1002B0000078044400F064F9401BA042FAD370BDFA
:1002C0000C00002010B51649012817D0022826D1AD
:1002D000012008600021084601F016F911A001F084
:1002E0005FF90021012001F00FF915A001F058F984
:1002F000042320221946104601F0AEF900200860C0
:10030000014601F001F916A001F04AF9002101208F
:1003100001F0FAF819A001F043F901F00FFB10BD4C
:10032000000000204D6F64653A20527573682020EC
:1003300020202020202020202020202020200000FD
:10034000523A33367320473A33327320593A347372
:1003500020202020202020202020202020200000DD
:100360004D6F64653A20536C656570202020202015
:1003700020202020202020202020200059656C6C87
:100380006F7720626C696E6B2031485A20202020E4
:10039000202020202020202020000000044910B52B
:1003A0000A68024202D00860FFF78CFF10BD00000F
:1003B000140401402DE9F84FDFF89C910024A9F1C5
:1003C000040B23460F2709F1040AABF1040EBBE02E
:1003D0000125A5402A40AA4276D1DFF880C14E68A7
:1003E000A6EB0C0866452BD00DDC032E34D005DCC3
:1003F00036B3012E19D0022E2FD11BE0112E16D0AC
:10040000122E2AD119E0B8F5881F19D006DCB8F5EC
:10041000803F15D0B8F5801F1FD111E0B8F5001F3F
:100420000ED0B8F5041F18D10AE0CB6815E0CB68F0
:100430001B1D12E0CB6808330FE0CB680C330CE0D7
:100440008B682BB1012B4FF0080303D0456104E00A
:10045000042302E0056100E00023FF2A01D80646DC
:1004600001E000F104064FEA840501D9A5F1200559
:10047000D6F8008007FA05FC28EA0C0803FA05F50F
:1004800048EA0508C6F800804D68ED005BD5344D9C
:10049000AE6946F00106AE61AD6924F0030605F0D1
:1004A000010500952F4D06EB050CDCF80850A6075A
:1004B000360F07FA06F825EA0805DFF8AC80404554
:1004C00003D14FF0000810E03DE0DFF8A080404588
:1004D00002D14FF0010808E0DFF89480404502D1D6
:1004E0004FF0020801E04FF0030808FA06F848EA66
:1004F0000508CCF808804D68D9F80060ED024D463B
:1005000001D5164300E096432E604D68DAF800608E
:10051000AD02554601D5164300E096432E604D6866
:10052000DBF80060AD035D4601D5164300E096435D
:100530002E604D68DEF80060ED03754601D5164368
:1005400000E096432E60641C0A6832FA04F57FF4DA
:100550003FAFBDE8F88F0000080401400000111013
:10056000001002400000014000080140000C014062
:10057000001001400AB1016170470904FBE7000067
:1005800001488068704700000C00002070B504002E
:1005900025D094F83D00002520B984F83C50204631
:1005A00000F04EF9242084F83D002068016821F015
:1005B000010101602068016841F400410160206888
:1005C000016821F40041016000F096FA4D4A61682B
:1005D000914201D84C4900E04C49884201D20120A7
:1005E00070BD4B492368B0FBF1F15E6826F03F0611
:1005F0000E435E606368934206D94FF49673594385
:100600004FF47A73B1FBF3F12368491C1E6A26F09C
:100610003F06314319626168914210D84900401E7B
:10062000B0FBF1F2521CC2F30B02042A01D20420E7
:1006300022E0B0FBF1F0401CC0F30B001CE0A2680C
:10064000F2B301EBC10303EB0116431EB3FBF6F358
:100650005B1C43F480431B0549D092B301EBC102FC
:1006600002EB0111401EB0FBF1F0401CC0F30B0087
:1006700040F4804040F400402168CA694CF6FF73A2
:100680009A431043C861D4E9071001432068026807
:1006900022F0C00211430160D4E903010143206844
:1006A000826848F2FF339A4311438160D4E905011F
:1006B00008432168CA6822F0FF021043C86001E0C5
:1006C0000EE016E02068016841F001010160256438
:1006D000202084F83D00256384F83E50002070BD42
:1006E00001EB4106431EB3FBF6F35B1CB3E70120AD
:1006F000C2E701EB4101401EB0FBF1F0401CC0F32A
:100700000B00B7E7A086010080841E0000093D00B1
:1007100040420F002DE9F84F1F4690468A46044696
:10072000DDF82890FFF72CFF054694F83D002028BF
:100730007FD11923012240492046009500F048FC52
:10074000002876D194F83C00012872D0012084F86A
:100750003C0020680168C90703D1016841F001012C
:1007600001602068016821F400610160212084F8A3
:100770003D00102084F83E0000262664C4F8248042
:100780006785608D20852D48E0622B464A4651469C
:10079000204600F0A3FB90B9206841698069009071
:1007A00036E02A464946204600F0B8FC50B1206C9D
:1007B000042804D12068016841F40071016001201F
:1007C000BDE8F88F606A216800780861606A401CA3
:1007D0006062618D491E6185218D491E89B2218526
:1007E00022685369DB435B070BD451B10078106179
:1007F000606A401C6062608D401E6085208D401ED6
:1008000020852A464946204600F0B6FB0028CED176
:10081000208D0028C5D154F83D0B016841F40071CA
:100820000160202004F81E09E67766770020C7E7FC
:10083000FFE70220C4E70000020010000000FFFFF5
:1008400010B586B0002100910191029103910068DA
:100850000F4988421AD10F4CA06940F00800A061EE
:10086000A069694600F008000490C02000901220A2
:100870000190032003900848FFF79CFDE06940F4D5
:100880000010E061E06900F40010049006B010BDB3
:100890000054004000100240000C014002488168F2
:1008A00002781144816070470C000020074810B5A1
:1008B000016841F010010160032000F075F800208C
:1008C00000F006F800F024F8002010BD00200240DF
:1008D00070B50D4D04464FF47A712878B1FBF0F0F5
:1008E0000A490968B1FBF0F000F0CCFA48B9102CC5
:1008F00007D200222146501E00F036F800206C601E
:1009000070BD012070BD00000C0000201800002008
:100910000C4808B5816941F001018161816901F0EC
:1009200001010091C16941F08051C161C06900F0CD
:10093000805000900448416821F0E06141F000716E
:10094000416008BD0010024000000140002809DBA2
:1009500000F01F02012191404009800000F1E020D9
:10096000C0F8001170470000F0B40E4B1B680C4635
:10097000C3F30223C3F10705042D00D90425191D73
:10098000072901D2002300E0DB1E012606FA05F14B
:10099000491E214099409E40761E16403143F0BCCE
:1009A00000F082BC0CED00E0064900F00702086888
:1009B0004FF6FF03184040EA0220034A1043086044
:1009C000704700000CED00E00000FA052DE9F0474B
:1009D0000F46050061D0434E306800F00700B84272
:1009E00009D2306820F0070038433060306800F0EA
:1009F0000700B84251D128683B4C810712D5400707
:100A000003D5606840F4E06060602878000703D593
:100A1000606840F4605060606068A96820F0F00091
:100A2000084360602878C00728D06868012810D083
:100A30002168022810D0890700292EDA616821F088
:100A4000030101436160FFF79BFD804641F2883955
:100A50000DE021688903EFE78901EDE7FFF790FDDD
:100A6000A0EB0801494502D90320BDE8F087606882
:100A7000696800F00C00B0EB810FEFD1306800F036
:100A80000700B8420BD9306820F0070038433060C7
:100A9000306800F00700B84201D00120E5E728786F
:100AA000400705D56068E96820F4E06008436060AD
:100AB0002878000706D56068296920F4605040EA6C
:100AC000C100606000F028F86168084AC1F30311B2
:100AD000515CC8400649086006480068FFF7F8FE08
:100AE0000020C2E70020024000100240EA1900087E
:100AF00018000020100000200448054900684968DB
:100B0000044AC1F30221515CC8407047180000201C
:100B100000100240FA1900080E4A51680E4801F010
:100B20000C03042B11D0082B0FD10C48C1F38343C5
:100B3000C903C05C0AD55168084AC1F34041921EFE
:100B4000515C054A5043B0FBF1F0704704494843FB
:100B5000704700000010024000127A00DA19000805
:100B600000093D002DE9F84F040070D02078C04DF9
:100B7000C00749D06868C0F38100012807D06868C1
:100B8000C0F38100022809D16868C00306D528682F
:100B9000800339D560680028E7D035E06068B0F59B
:100BA000803F0BD010B1B0F5A02F11D0286820F4F1
:100BB00080302860286820F4802002E0286840F413
:100BC00080302860606890B1FFF7DAFC06460AE0E2
:100BD000286840F480202860F0E700BFFFF7D0FCD1
:100BE000801B642873D828688003F7D50CE0FFF7D2
:100BF000C7FC064605E000BFFFF7C2FC801B642867
:100C0000F0D828688003F7D420789A4E80074FF0F8
:100C100001094FF0000839D5686810F00C0F07D0B3
:100C20006868C0F38100022809D16868C00306D44F
:100C30002868800714D52069012808D110E02069B0
:100C4000B0B1C6F80090FFF79BFC074605E00AE14B
:100C5000FFF796FCC01B0228C4D828688007F7D588
:100C60002868616920F0F80040EAC10028600DE0C2
:100C7000C6F80080FFF784FC074604E0FFF780FC1D
:100C8000C01B022823D828688007F7D420780007E3
:100C90002CD57948A169D9B1C0F80090FFF770FC54
:100CA000074604E0FFF76CFCC01B02280FD8686AF7
:100CB0008007F7D571484FF4FA510068B0FBF1F0A6
:100CC000009000BF0098411E0091FAD20EE080E033
:100CD000C0F80080FFF754FC074604E0FFF750FC23
:100CE000C01B022875D8686A8007F7D420784007AF
:100CF00060D5E8690027C00008D4E86940F080505A
:100D0000E861E869012700F0805000905C480168C4
:100D1000C90513D40168834641F480710160FFF76F
:100D20002FFC824606E000BFFFF72AFCA0EB0A007A
:100D300064284ED8DBF80000C005F5D5E06801282E
:100D40000AD008B1052813D0286A20F001002862D3
:100D5000286A20F0040002E0286A40F001002862BE
:100D6000E06841F2883B98B1FFF70AFC82460BE04D
:100D7000286A40F004002862EEE700BFFFF700FC9D
:100D8000A0EB0A0159455AD8286A8007F6D50CE02D
:100D9000FFF7F6FB824605E0FFF7F2FBA0EB0A0146
:100DA00059454CD8286A8007F6D41FB1E86920F06D
:100DB0008050E861E06988B36968C1F38101022964
:100DC00044D00228C6F8608004D0FFF7D9FB04465F
:100DD00038E034E0FFF7D4FB074604E0FFF7D0FB30
:100DE000C01B02282BD828688001F7D4206AB0F5F0
:100DF000803F05D16868A16820F40030084368602E
:100E0000D4E908010843696821F474110843686053
:100E1000C6F86090FFF7B4FB044606E025E000BF8B
:100E2000FFF7AEFB001B022809D828688001F7D520
:100E30001BE000BFFFF7A4FB001B022802D9032020
:100E4000BDE8F88F28688001F4D40EE00128F7D0BF
:100E50006868226A00F48031914204D1616A00F42A
:100E60007010884201D00120EAE70020E8E7000086
:100E7000001002400000424280044242180000205C
:100E80000070004010B5401EB0F1807F01D30120FA
:100E900010BD4FF0E02460610F21601700F004FAEC
:100EA0000020A06107202061002010BDFEE701683E
:100EB0004A69D24352050FD46FF480624A6100211F
:100EC00040F8301F202242738173026942F004020D
:100ED000026101730120704700207047F8B5044695
:100EE000C06A1E460D461746082807D0012805D0BF
:100EF00010F5803F02D0206B122804D120680168D1
:100F000041F480710160134600224FF00111204628
:100F1000009600F05DF840B120680068C00502D579
:100F20004FF4007020640320F8BD2069B0F5804FB5
:100F30000ED00620216800EAD51040F0F0000861CC
:100F400033463A460B49204600F08AF878B902E069
:100F500005F0FE0000E0E8B221680861054933466B
:100F60003A46891F204600F07BF80028DCD001209B
:100F7000F8BD00000800010070B516460D46044695
:100F80001EE02046FFF793FF08B1012070BD681CEA
:100F900016D0FFF7F5FA801BA84200D885B9206863
:100FA0004069C04340070BD5002044F8300F202192
:100FB0006173A073216941F0200121612073E4E78E
:100FC00020684069C0434007DBD4002070BD0000AA
:100FD0002DE9F047984617460D460446C1F30746EB
:100FE000DDF820902AE000BFB8F1FF3F26D0FFF7E0
:100FF000C7FAA0EB0901414502D8B8F1000F1DD195
:101000002068012E16D0806925EA00000004000C3B
:1010100012D00020B84211D1002044F8300F202116
:101020006173A073216941F02001216120730120C7
:10103000BDE8F0874069E7E70120EBE72068012E73
:101040000AD0806925EA00000004000C06D00020C8
:10105000B842C9D00020EBE74069F3E70120F7E789
:101060002DE9F047984616460D4604464FF0000914
:101070004FF0200AC1F3074723E020684069C043CE
:10108000400515D42068016841F4007101602168B1
:101090006FF480604861C4F8309084F83DA084F813
:1010A0003E90216C41F00401216484F83C9021E0E1
:1010B000701C06D0FFF764FAA0EB0800B04203D81A
:1010C00016B1012F1FD021E02068012F15D08069B3
:1010D00025EA00000004000C18D000BF44F8309F3F
:1010E00084F80DA084F80E90216941F0200121615F
:1010F00084F80C900120BDE8F087406925EA0000E3
:101100000004000CEAD12068406901E02068806991
:1011100025EA00000004000CAFD1ECE770B51646DC
:101120000D4604461EE02046FFF7C1FE08B101202F
:1011300070BD681C16D0FFF723FA801BA84200D8A8
:1011400085B920684069C04300060BD5002044F8EB
:10115000300F20216173A073216941F020012161CA
:101160002073E4E720684069C0430006DBD4002018
:1011700070BD00002DE9F04385B000242E48009496
:10118000019402940394816941F020018161816995
:1011900001F020010491816941F0040181618169BC
:1011A00001F004010491816941F0080181618069C5
:1011B000DFF8888000F0080049F6FC7504900022F2
:1011C00029464046FFF7D6F9DFF874904CF21B072A
:1011D000002239464846FFF7CDF903200090194810
:1011E000CDE9010469464046FFF7E4F80095022680
:1011F00001250396CDE9015469464046FFF7DAF828
:1012000000970396CDE9015469464846FFF7D2F8A6
:10121000002201210620FFF7A7FB0620FFF796FB1F
:10122000002201210720FFF79FFB0720FFF78EFB1D
:1012300005B0BDE8F0830000001002400008014046
:10124000000C014000001110FEE7FEE770477047F8
:10125000FFF724BB10B590B028216846FEF7B4FF15
:1012600014210AA8FEF7B0FF02200090012004908C
:1012700010200024059007946846FFF773FC08B11E
:1012800072B6FEE70F20CDE90A040C940D940021FC
:101290000AA80E94FFF79AFB002801D072B6FEE769
:1012A00010B010BD7047FEE70907090E002804DBE7
:1012B00000F1E02080F80014704700F00F0000F10A
:1012C000E02080F8141D70472DE9F0474FF480713D
:1012D0006D4D4E008F006D4C4FF400684FF48059F7
:1012E0004FF4004A0A2876D2DFE800F0051F273CB9
:1012F00065768288A2BC00222846FFF73BF90022CF
:1013000031462846FFF736F9002239462846FFF7CE
:1013100031F9002241462846FFF72CF900224946C0
:101320002846FFF727F9002201E0012267E0514635
:101330002846FFF71FF9012232E000222846FFF776
:1013400019F9002231462846FFF714F901223946DF
:101350002846FFF70FF9002241462846FFF70AF911
:10136000002213E000222846FFF704F9002231464C
:101370002846FFF7FFF8002239462846FFF7FAF81B
:10138000002241462846FFF7F5F801224946284643
:10139000FFF7F0F8012251462846FFF7EBF800224C
:1013A00008212046FFF7E6F82046BDE8F047012275
:1013B0001021FFF7DFB801222846FFF7DBF80022F3
:1013C00031462846FFF7D6F8002239462846FFF76F
:1013D000D1F8012206E055E000222846FFF7CAF8BE
:1013E000012244E041462846FFF7C4F8012233E0D9
:1013F00000222846FFF7BEF801221EE00022284600
:10140000FFF7B8F8002231462846FFF7B3F800226C
:1014100039462846FFF7AEF8012241462846FFF735
:10142000A9F8012249462846FFF7A4F801227EE7E1
:1014300000222846FFF79EF8002231462846FFF793
:1014400099F8002239462846FFF794F800224146D1
:101450002846FFF78FF8002249462846FFF78AF80A
:10146000002298E700222846FFF784F80022314640
:101470002846FFF77FF8002239462846FFF77AF81A
:101480000022AFE7BDE8F08700080140000C0140F2
:1014900010B53220FEF704FF302000F041F805209F
:1014A000FEF7FEFE302000F03BF80120FEF7F8FECC
:1014B000302000F035F80A20FEF7F2FE202000F080
:1014C0002FF80A20FEF7ECFE282000F029F8012072
:1014D000FEF7E6FE082000F023F80120FEF7E0FE0C
:1014E000012000F01DF80120FEF7DAFE0120FEF7D2
:1014F000D7FE062000F014F80120FEF7D1FEBDE86B
:1015000010400C2000F00CB810B1012805D102E009
:1015100041F0800101E041F0C001C8B2AFF30080AA
:101520001CB500F0F00141F00C028DF8042041F0F0
:10153000080100018DF8051040F00C018DF806102F
:1015400040F008008DF8070064200090042301AAF1
:101550004E210248FFF7DEF81CBD00001C000020F1
:101560001CB500F0F00141F00D028DF8042041F0AF
:10157000090100018DF8051040F00D018DF80610ED
:1015800040F009008DF8070064200090042301AAB0
:101590004E210248FFF7BEF81CBD00001C000020D1
:1015A00010B5044602E0641CFFF7DAFF207800283B
:1015B000F9D110BDFFF77AF9FFF74CFEFFF7DAFD1E
:1015C000154814494FF480420160144941600021DC
:1015D0008160C0E9031241618161C1610162FEF76E
:1015E000D5FF08B172B6FEE7FFF752FF00210846AB
:1015F000FFF78AFF0AA0FFF7D3FF00210120FFF7C2
:1016000083FF0EA0FFF7CCFF04231C2219461046CF
:1016100000F022F8005400401C000020A0860100C9
:101620004D6F64653A204E6F726D616C20202020F2
:10163000202020202020202020200000523A333279
:101640007320473A32387320593A347320202020CF
:1016500020202020202000002DE9FF4F93B082465B
:101660008146149807904844C6B20A90109600200C
:10167000169906905018C5B20F9004910AEB050018
:10168000801CAAF10101AA4C0E910990C7B26160B9
:10169000681E0D90A06000209046024611904FF009
:1016A000020B8021A348FEF765FF01222021A148FB
:1016B000FEF760FF002240219E48FEF75BFF0122FB
:1016C00010219C48FEF756FF002204219948FEF79E
:1016D00051FF002208219748FEF74CFF1498401E46
:1016E0000C90A8F101000B90B9F1000F15D1DFF8B3
:1016F0004492002280214846FEF73CFF0022202130
:101700004846FEF737FF012240214846FEF732FFE8
:10171000012006900C98D14660600798A8B9012274
:1017200080218448FEF726FF002220218148FEF711
:1017300021FF002240217F48FEF71CFF14980790EC
:10174000022006901098401E6060AEB9794E0022CB
:1017500080213046FEF70EFF012220213046FEF7A1
:1017600009FF002240213046FEF704FF0A98C6B266
:10177000002006900E986060B8F1000F18D1DFF8D5
:10178000B481002210214046FEF7F4FE002204211D
:101790004046FEF7EFFE012208214046FEF7EAFE32
:1017A0000B984FF0010B00F0FF081698401EA06048
:1017B0000498B8B9DFF87CB1012210215846FEF731
:1017C000D9FE002204215846FEF7D4FE002208214B
:1017D0005846FEF7CFFE0C984FF0020BC0B20490B3
:1017E0000D98A060ADB9534D002210212846FEF798
:1017F000C1FE012204212846FEF7BCFE002208217A
:101800002846FEF7B7FE0F984FF0000BC5B20B98B5
:10181000A0607FBB069820B1012807D002280CD118
:1018200009E0A9F1010000F0FF0906E00798401E59
:10183000C0B2079001E0761EF6B25FEA0B0005D059
:10184000012808D0BBF1020F0CD109E0A8F101007A
:1018500000F0FF0806E00498401EC0B2049001E0CA
:101860006D1EEDB26068401E6060A068401EA06002
:101870000998C7B2119830B1012817D002282FD08B
:10188000032827D13EE000224FF400412A48FEF70A
:1018900071FE012211462848FEF76CFE61680A209D
:1018A00091FBF0F0FFF710FD012012E00022012172
:1018B0002148FEF75FFE012202211F48FEF75AFE73
:1018C00061680A2091FBF0F200FB1210FFF7FCFCAC
:1018D000022011907F1EFFB20520FEF7E1FC03E716
:1018E000002202211448FEF745FE0122910312480E
:1018F000FEF740FEA1680A2091FBF0F0FFF7E4FC40
:101900000320E6E700224FF480410B48FEF732FE49
:101910000122D1030848FEF72DFEA1680A2091FBA1
:10192000F0F200FB1210FFF7CFFC0020D1E700001F
:101930000000002000080140000C0140244C00225F
:101940004FF400412046FEF715FE00224FF480417F
:101950002046FEF70FFE002202212046FEF70AFE77
:10196000002201212046FEF705FE1A4D4FF4FA74BD
:10197000002280212846FEF7FDFD00224021284656
:10198000FEF7F8FD002220212846FEF7F3FD002295
:1019900010212846FEF7EEFD002208212846FEF71A
:1019A000E9FD002204212846FEF7E4FD2046FEF76B
:1019B00077FC012240212846FEF7DCFD01220821A8
:1019C0002846FEF7D7FD2046FEF76AFCD0E7000068
:1019D000000C014000080140010202030405060753
:1019E00008090A0B0C0D0E0F10100000000000007B
:1019F00000000102030406070809000000000102BC
:101A000003040000241A0008000000201C0000004D
:101A100028010008401A00081C000020B40600003D
:101A20004401000800000000000000000000000069
:101A300001000000100000000000000000127A0009
:04000005080000ED02
:00000001FF
