:020000040800F2
:10000000100700208901000873120008450F00083E
:10001000711200088F020008B313000800000000EE
:10002000000000000000000000000000771200083F
:100030009102000800000000751200087912000803
:10004000A3010008A3010008A3010008A301000800
:10005000A3010008A3010008A3010008A3010008F0
:10006000A3010008A3010008A3010008A3010008E0
:10007000A3010008A3010008A3010008A3010008D0
:10008000A3010008A3010008A3010008A3010008C0
:10009000A3010008A3010008A3010008A3010008B0
:1000A000A3010008A3010008A3010008A3010008A0
:1000B000A3010008A301000800000000A30100083C
:1000C000A30100080000000000000000A3010008D8
:1000D00000000000A3010008A301000800000000C8
:1000E000A3010008A3010008A301000800F002F822
:1000F00000F03AF80AA090E8000C82448344AAF188
:100100000107DA4501D100F02FF8AFF2090EBAE885
:100110000F0013F0010F18BFFB1A43F0010318473B
:10012000C0140000E0140000103A24BF78C878C161
:10013000FAD8520724BF30C830C144BF04680C60ED
:10014000704700000023002400250026103A28BF35
:1001500078C1FBD8520728BF30C148BF0B60704739
:100160001FB51FBD10B510BD00F058F81146FFF7C0
:10017000F7FF01F0C3F900F076F803B4FFF7F2FFE0
:1001800003BC00F07DF8000009488047094800479B
:10019000FEE7FEE7FEE7FEE7FEE7FEE7FEE7FEE737
:1001A000FEE7FEE704480549054A064B7047000094
:1001B000DB120008ED0000081001002010070020ED
:1001C00010030020100300204FF0000200B513467A
:1001D00094469646203922BFA0E80C50A0E80C5067
:1001E000B1F12001BFF4F7AF090728BFA0E80C5018
:1001F00048BF0CC05DF804EB890028BF40F8042B11
:1002000008BF704748BF20F8022B11F0804F18BF7D
:1002100000F8012B7047704770477047754600F033
:100220002BF8AE4605006946534620F00700854688
:1002300018B020B5FFF7B6FFBDE820404FF000062C
:100240004FF000074FF000084FF0000B21F00701BE
:10025000AC46ACE8C009ACE8C009ACE8C009ACE801
:10026000C0098D46704710B50446AFF300802046A4
:10027000BDE81040FFF781BF00487047AC00002088
:1002800001491820ABBEFEE7260002007047FEE7DA
:100290007047000070B5044600F0EEF80546601C9B
:1002A00002D004480078044400F0E6F8401BA04265
:1002B000FAD370BD000000202DE9F84FDFF89C91C3
:1002C0000024A9F1040B23460F2709F1040AABF11E
:1002D000040EBBE00125A5402A40AA4276D1DFF8F2
:1002E00080C14E68A6EB0C0866452BD00DDC032EB2
:1002F00034D005DC36B3012E19D0022E2FD11BE0ED
:10030000112E16D0122E2AD119E0B8F5881F19D057
:1003100006DCB8F5803F15D0B8F5801F1FD111E07D
:10032000B8F5001F0ED0B8F5041F18D10AE0CB684D
:1003300015E0CB681B1D12E0CB6808330FE0CB68DB
:100340000C330CE08B682BB1012B4FF0080303D06A
:10035000456104E0042302E0056100E00023FF2A78
:1003600001D8064601E000F104064FEA840501D9F0
:10037000A5F12005D6F8008007FA05FC28EA0C084C
:1003800003FA05F548EA0508C6F800804D68ED0057
:100390005BD5344DAE6946F00106AE61AD6924F01F
:1003A000030605F0010500952F4D06EB050CDCF862
:1003B0000850A607360F07FA06F825EA0805DFF801
:1003C000AC80404503D14FF0000810E03DE0DFF87D
:1003D000A080404502D14FF0010808E0DFF894808A
:1003E000404502D14FF0020801E04FF0030808FA3F
:1003F00006F848EA0508CCF808804D68D9F800608E
:10040000ED024D4601D5164300E096432E604D683F
:10041000DAF80060AD02554601D5164300E0964378
:100420002E604D68DBF80060AD035D4601D51643D4
:1004300000E096432E604D68DEF80060ED037546DF
:1004400001D5164300E096432E60641C0A6832FA18
:1004500004F57FF43FAFBDE8F88F000008040140C9
:10046000000011100010024000000140000801408F
:10047000000C0140001001400148806870470000F6
:100480000000002070B5040025D094F83D00002540
:1004900020B984F83C50204600F04EF9242084F81E
:1004A0003D002068016821F00101016020680168B9
:1004B00041F4004101602068016821F400410160BD
:1004C00000F088FA4D4A6168914201D84C4900E039
:1004D0004C49884201D2012070BD4B492368B0FBD2
:1004E000F1F15E6826F03F060E435E60636893425A
:1004F00006D94FF4967359434FF47A73B1FBF3F175
:100500002368491C1E6A26F03F0631431962616860
:10051000914210D84900401EB0FBF1F2521CC2F3C8
:100520000B02042A01D2042022E0B0FBF1F0401CAF
:10053000C0F30B001CE0A268F2B301EBC10303EBB4
:100540000116431EB3FBF6F35B1C43F480431B050B
:1005500049D092B301EBC10202EB0111401EB0FB86
:10056000F1F0401CC0F30B0040F4804040F4004028
:100570002168CA694CF6FF739A431043C861D4E9F5
:10058000071001432068026822F0C0021143016095
:10059000D4E9030101432068826848F2FF339A439B
:1005A00011438160D4E9050108432168CA6822F03B
:1005B000FF021043C86001E00EE016E02068016809
:1005C00041F0010101602564202084F83D0025638D
:1005D00084F83E50002070BD01EB4106431EB3FB82
:1005E000F6F35B1CB3E70120C2E701EB4101401EBB
:1005F000B0FBF1F0401CC0F30B00B7E7A086010090
:1006000080841E0000093D0040420F002DE9F84F94
:100610001F4690468A460446DDF82890FFF72CFFD7
:10062000054694F83D0020287FD119230122404936
:100630002046009500F018FD002876D194F83C0083
:10064000012872D0012084F83C0020680168C907A5
:1006500003D1016841F0010101602068016821F4C3
:1006600000610160212084F83D00102084F83E00E4
:1006700000262664C4F824806785608D20852D4877
:10068000E0622B464A465146204600F073FC90B982
:10069000206841698069009036E02A464946204634
:1006A00000F088FD50B1206C042804D12068016856
:1006B00041F4007101600120BDE8F88F606A216893
:1006C00000780861606A401C6062618D491E618526
:1006D000218D491E89B2218522685369DB435B075E
:1006E0000BD451B100781061606A401C6062608D6B
:1006F000401E6085208D401E20852A4649462046A2
:1007000000F086FC0028CED1208D0028C5D154F8F9
:100710003D0B016841F400710160202004F81E09BE
:10072000E67766770020C7E7FFE70220C4E700000E
:10073000020010000000FFFF10B586B000210091FC
:1007400001910291039100680F4988421AD10F4C20
:10075000A06940F00800A061A069694600F00800A7
:100760000490C020009012200190032003900848BC
:10077000FFF7A2FDE06940F40010E061E06900F4D9
:100780000010049006B010BD00540040001002405C
:10079000000C014002488168027811448160704772
:1007A00000000020074810B5016841F01001016009
:1007B000032000F067F80F2000F006F800F024F89E
:1007C000002010BD0020024070B50D4D04464FF4CE
:1007D0007A712878B1FBF0F00A490968B1FBF0F0B2
:1007E00000F0BEFA48B9102C07D200222146501E54
:1007F00000F028F800206C6070BD012070BD000082
:10080000000000200C0000200C4808B5816941F070
:1008100001018161816901F001010091C16941F02B
:100820008051C161C06900F0805000900448416867
:1008300021F0E06141F00071416008BD001002400C
:1008400000000140F0B40E4B1B680C46C3F30223BA
:10085000C3F10705042D00D90425191D072901D26C
:10086000002300E0DB1E012606FA05F1491E2140A7
:1008700099409E40761E16403143F0BC00F09ABD70
:100880000CED00E0064900F0070208684FF6FF0390
:10089000184040EA0220034A1043086070470000F5
:1008A0000CED00E00000FA052DE9F0470F460500C9
:1008B00061D0434E306800F00700B84209D230687A
:1008C00020F0070038433060306800F00700B8427D
:1008D00051D128683B4C810712D5400703D5606889
:1008E00040F4E06060602878000703D5606840F459
:1008F000605060606068A96820F0F00008436060A4
:100900002878C00728D06868012810D021680228FC
:1009100010D0890700292EDA616821F00301014314
:100920006160FFF7A9FD804641F288390DE021683A
:100930008903EFE78901EDE7FFF79EFDA0EB0801D2
:10094000494502D90320BDE8F0876068696800F076
:100950000C00B0EB810FEFD1306800F00700B84217
:100960000BD9306820F0070038433060306800F061
:100970000700B84201D00120E5E72878400705D5F7
:100980006068E96820F4E060084360602878000748
:1009900006D56068296920F4605040EAC1006060B3
:1009A00000F028F86168084AC1F30311515CC8409F
:1009B0000649086006480068FFF706FF0020C2E706
:1009C0000020024000100240C61500080C00002064
:1009D000040000200448054900684968044AC1F33E
:1009E0000221515CC84070470C00002000100240FA
:1009F000D61500080E4A51680E4801F00C03042B6E
:100A000011D0082B0FD10C48C1F38343C903C05C3C
:100A10000AD55168084AC1F34041921E515C054A0B
:100A20005043B0FBF1F07047044948437047000061
:100A30000010024000127A00B615000800093D00BF
:100A40002DE9F84F040070D02078C04DC00749D080
:100A50006868C0F38100012807D06868C0F381008E
:100A6000022809D16868C00306D52868800339D5F3
:100A700060680028E7D035E06068B0F5803F0BD0B3
:100A800010B1B0F5A02F11D0286820F48030286074
:100A9000286820F4802002E0286840F48030286034
:100AA000606890B1FFF7E8FC06460AE0286840F469
:100AB00080202860F0E700BFFFF7DEFC801B642881
:100AC00073D828688003F7D50CE0FFF7D5FC0646FD
:100AD00005E000BFFFF7D0FC801B6428F0D8286831
:100AE0008003F7D420789A4E80074FF001094FF029
:100AF000000839D5686810F00C0F07D06868C0F39B
:100B00008100022809D16868C00306D428688007DC
:100B100014D52069012808D110E02069B0B1C6F8C9
:100B20000090FFF7A9FC074605E00AE1FFF7A4FCE7
:100B3000C01B0228C4D828688007F7D528686169D7
:100B400020F0F80040EAC10028600DE0C6F80080FF
:100B5000FFF792FC074604E0FFF78EFCC01B02285B
:100B600023D828688007F7D4207800072CD5794847
:100B7000A169D9B1C0F80090FFF77EFC074604E0F8
:100B8000FFF77AFCC01B02280FD8686A8007F7D5E8
:100B900071484FF4FA510068B0FBF1F0009000BFCB
:100BA0000098411E0091FAD20EE080E0C0F800806B
:100BB000FFF762FC074604E0FFF75EFCC01B02285B
:100BC00075D8686A8007F7D42078400760D5E8694F
:100BD0000027C00008D4E86940F08050E861E86967
:100BE000012700F0805000905C480168C90513D4CB
:100BF0000168834641F480710160FFF73DFC824645
:100C000006E000BFFFF738FCA0EB0A0064284ED8CE
:100C1000DBF80000C005F5D5E06801280AD008B16E
:100C2000052813D0286A20F001002862286A20F0E5
:100C3000040002E0286A40F001002862E06841F206
:100C4000883B98B1FFF718FC82460BE0286A40F019
:100C500004002862EEE700BFFFF70EFCA0EB0A01DC
:100C600059455AD8286A8007F6D50CE0FFF704FCEE
:100C7000824605E0FFF700FCA0EB0A0159454CD87D
:100C8000286A8007F6D41FB1E86920F08050E86137
:100C9000E06988B36968C1F38101022944D0022860
:100CA000C6F8608004D0FFF7E7FB044638E034E084
:100CB000FFF7E2FB074604E0FFF7DEFBC01B02285C
:100CC0002BD828688001F7D4206AB0F5803F05D181
:100CD0006868A16820F4003008436860D4E908011E
:100CE0000843696821F4741108436860C6F860908D
:100CF000FFF7C2FB044606E025E000BFFFF7BCFBA0
:100D0000001B022809D828688001F7D51BE000BF26
:100D1000FFF7B2FB001B022802D90320BDE8F88FC1
:100D200028688001F4D40EE00128F7D06868226AB0
:100D300000F48031914204D1616A00F4701088425D
:100D400001D00120EAE70020E8E70000001002409F
:100D500000004242800442420C000020007000402B
:100D600010B5401EB0F1807F01D3012010BD4FF0BF
:100D7000E02460610F21601700F01CFB0020A061DF
:100D800007202061002010BD70B590F83C20012A9A
:100D900023D0012480F83C40022280F83D200368E3
:100DA0005A689D6822F070060A6832435A600C4BFC
:100DB00002689A4205D0B2F1804F02D0094B9A42A4
:100DC00004D1496825F080031943916080F83D40C3
:100DD000002180F83C10084670BD022070BD000064
:100DE000002C01400004004010B5040003D094F82A
:100DF0003D0010B107E0012010BD002084F83C0048
:100E0000204600F01FF8022084F83D00211D2068D4
:100E100000F064FA012084F8460084F83E0084F86B
:100E20003F0084F8400084F8410084F8420084F8D0
:100E3000430084F8440084F8450084F83D00002015
:100E400010BD000008B50068B0F1804F08D105481A
:100E5000C16941F00101C161C06900F00100009069
:100E600008BD00000010024070B5044690F83C0038
:100E70000025012817D0012684F83C60022084F860
:100E80003D002068826822F0770222F47F4282606F
:100E90000868502838D00DDC20284FD005DC90B3EE
:100EA000102811D14AE0022070BD302846D04028D9
:100EB0000AD13BE060282FD070280DD0B0F5805FBC
:100EC00003D0B0F5005F12D0012584F83D6000200A
:100ED00084F83C00284670BDCB68D1E90121206828
:100EE00000F032FA2068816841F0770109E0CB68B0
:100EF000D1E90121206800F027FA2068816841F4D7
:100F000080418160E1E719E0CA684968206800F023
:100F10002DFA5021206806E0CA684968206800F070
:100F200036FA6021206800F019FACEE7CA684968ED
:100F3000206800F01BFA40212068F4E7226801468F
:100F40001046F0E7FEE701684A69D24352050FD424
:100F50006FF480624A61002140F8301F2022427302
:100F60008173026942F0040202610173012070473B
:100F700000207047F8B50446C06A1E460D46174665
:100F8000082807D0012805D010F5803F02D0206B3B
:100F9000122804D12068016841F480710160134671
:100FA00000224FF001112046009600F05DF840B19C
:100FB00020680068C00502D54FF40070206403204B
:100FC000F8BD2069B0F5804F0ED00620216800EAF8
:100FD000D51040F0F000086133463A460B492046F0
:100FE00000F08AF878B902E005F0FE0000E0E8B20F
:100FF00021680861054933463A46891F204600F0BA
:101000007BF80028DCD00120F8BD000008000100BA
:1010100070B516460D4604461EE02046FFF793FFC6
:1010200008B1012070BD681C16D0FFF725FA801B9F
:10103000A84200D885B920684069C04340070BD555
:10104000002044F8300F20216173A073216941F022
:10105000200121612073E4E720684069C043400714
:10106000DBD4002070BD00002DE9F04798461746FC
:101070000D460446C1F30746DDF820902AE000BF84
:10108000B8F1FF3F26D0FFF7F7F9A0EB0901414582
:1010900002D8B8F1000F1DD12068012E16D080694A
:1010A00025EA00000004000C12D00020B84211D143
:1010B000002044F8300F20216173A073216941F0B2
:1010C0002001216120730120BDE8F0874069E7E736
:1010D0000120EBE72068012E0AD0806925EA000094
:1010E0000004000C06D00020B842C9D00020EBE775
:1010F0004069F3E70120F7E72DE9F04798461646E7
:101100000D4604464FF000094FF0200AC1F307478F
:1011100023E020684069C043400515D42068016879
:1011200041F40071016021686FF480604861C4F887
:10113000309084F83DA084F83E90216C41F0040189
:10114000216484F83C9021E0701C06D0FFF794F9EC
:10115000A0EB0800B04203D816B1012F1FD021E048
:101160002068012F15D0806925EA00000004000CDA
:1011700018D000BF44F8309F84F80DA084F80E907A
:10118000216941F02001216184F80C900120BDE823
:10119000F087406925EA00000004000CEAD12068CD
:1011A000406901E02068806925EA00000004000C25
:1011B000AFD1ECE770B516460D4604461EE020465A
:1011C000FFF7C1FE08B1012070BD681C16D0FFF703
:1011D00053F9801BA84200D885B920684069C043F4
:1011E00000060BD5002044F8300F20216173A07356
:1011F000216941F0200121612073E4E72068406902
:10120000C0430006DBD4002070BD000010B586B0DE
:1012100000241648009401940294039404944FF01F
:1012200080410594C0E900144FF6FF71C0E9024106
:1012300004618461FFF7D8FD08B172B6FEE74FF490
:101240008050009069460948FFF70EFE08B172B65B
:10125000FEE7049404A905480594FFF795FD0028CE
:1012600001D072B6FEE706B010BD00006400002099
:10127000FEE7FEE770477047FFF78CBA30B58FB0D6
:1012800028216846FEF7A0FF14210AA8FEF79CFF5C
:1012900001210804CDE900100024029402250491E4
:1012A000CDE907504FF4E01009906846FFF7C8FBFE
:1012B00008B172B6FEE70F20CDE90A054FF4806051
:1012C000CDE90C4002210AA80E94FFF7EDFA0028A0
:1012D00001D072B6FEE70FB030BD704770B502683E
:1012E000174B184C4FF08046984203D0B04201D0C3
:1012F000A04203D122F070054A682A43984203D0E5
:10130000B04201D0A04203D122F44074CA68224303
:101310004C6922F08002224302608A68C2620A6835
:101320008262984201D10969016301214161016929
:10133000C90703D0016921F00101016170BD0000FE
:10134000002C01400004004010B5846842EA0322EA
:1013500024F47F440A432243826010BD826822F055
:1013600070020A4342F007018160704710B5036ABA
:10137000046A24F001040462846924F0F00444EA5D
:10138000021423F00A020A438461026210BD10B500
:10139000036A046A24F010040462846923F0A00341
:1013A00024F4704444EA023243EA0111826101628A
:1013B00010BDFEE70907090E002804DB00F1E0205C
:1013C00080F80014704700F00F0000F1E02080F872
:1013D000141D704710B5012000F046F8BDE810401C
:1013E0000220FEF757BF10B53220FEF753FF302022
:1013F00000F03AF80520FEF74DFF302000F034F8F9
:101400000120FEF747FF302000F02EF80A20FEF7FB
:1014100041FF202000F028F80A20FEF73BFF28209B
:1014200000F022F80120FEF735FF0C2000F01CF838
:101430000120FEF72FFFFFF7CDFF0120FEF72AFF67
:10144000062000F011F8BDE810400120FEF722BF91
:1014500010B1012805D102E041F0800101E041F026
:10146000C001C8B2AFF300801CB500F0F00141F03C
:101470000C028DF8042041F0080100018DF80510E0
:1014800040F00C018DF8061040F008008DF80700C0
:1014900064200090042301AA4E210248FFF7B6F809
:1014A0001CBD0000100000201CB500F0F00141F050
:1014B0000D028DF8042041F0090100018DF805109E
:1014C00040F00D018DF8061040F009008DF807007E
:1014D00064200090042301AA4E210248FFF796F8E9
:1014E0001CBD00001000002010B5044602E0641C82
:1014F000FFF7DAFF20780028F9D110BD08B5FFF713
:1015000051F9FFF7BBFE2348816941F02001816159
:10151000816901F020010091816941F0040181613C
:10152000816901F004010091816941F00801816144
:101530008069194900F00800009018484FF4804273
:1015400001601749416000218160C0E903124161D7
:101550008161C1610162FEF795FF08B172B6FEE7D5
:10156000FFF754FEFFF73FFF4FF47A74002108465F
:10157000FFF76EFF0BA0FFF7B7FF01210846FFF74B
:1015800067FF0BA0FFF7B0FF2046FEF783FEFFF7D3
:1015900021FFEBE700100240005400401000002043
:1015A000A086010048656C6C6F2048696575000075
:1015B0004F4B4500010202030405060708090A0B08
:1015C0000C0D0E0F101000000000000000000102C2
:1015D00003040607080900000000010203040000DC
:1015E000001600080000002010000000280100087C
:1015F0001016000810000020000700004401000839
:1016000001000000100000000000000000127A003D
:04000005080000ED02
:00000001FF
